{
  "contractName": "SolnSquareVerifier",
  "abi": [
    {
      "constant": true,
      "inputs": [
        {
          "name": "interfaceId",
          "type": "bytes4"
        }
      ],
      "name": "supportsInterface",
      "outputs": [
        {
          "name": "",
          "type": "bool"
        }
      ],
      "payable": false,
      "stateMutability": "view",
      "type": "function"
    },
    {
      "constant": true,
      "inputs": [],
      "name": "name",
      "outputs": [
        {
          "name": "",
          "type": "string"
        }
      ],
      "payable": false,
      "stateMutability": "view",
      "type": "function"
    },
    {
      "constant": true,
      "inputs": [
        {
          "name": "tokenId",
          "type": "uint256"
        }
      ],
      "name": "getApproved",
      "outputs": [
        {
          "name": "",
          "type": "address"
        }
      ],
      "payable": false,
      "stateMutability": "view",
      "type": "function"
    },
    {
      "constant": false,
      "inputs": [
        {
          "name": "to",
          "type": "address"
        },
        {
          "name": "tokenId",
          "type": "uint256"
        }
      ],
      "name": "approve",
      "outputs": [],
      "payable": false,
      "stateMutability": "nonpayable",
      "type": "function"
    },
    {
      "constant": true,
      "inputs": [],
      "name": "totalSupply",
      "outputs": [
        {
          "name": "",
          "type": "uint256"
        }
      ],
      "payable": false,
      "stateMutability": "view",
      "type": "function"
    },
    {
      "constant": false,
      "inputs": [
        {
          "name": "from",
          "type": "address"
        },
        {
          "name": "to",
          "type": "address"
        },
        {
          "name": "tokenId",
          "type": "uint256"
        }
      ],
      "name": "transferFrom",
      "outputs": [],
      "payable": false,
      "stateMutability": "nonpayable",
      "type": "function"
    },
    {
      "constant": false,
      "inputs": [
        {
          "name": "_myid",
          "type": "bytes32"
        },
        {
          "name": "_result",
          "type": "string"
        }
      ],
      "name": "__callback",
      "outputs": [],
      "payable": false,
      "stateMutability": "nonpayable",
      "type": "function"
    },
    {
      "constant": true,
      "inputs": [
        {
          "name": "owner",
          "type": "address"
        },
        {
          "name": "index",
          "type": "uint256"
        }
      ],
      "name": "tokenOfOwnerByIndex",
      "outputs": [
        {
          "name": "",
          "type": "uint256"
        }
      ],
      "payable": false,
      "stateMutability": "view",
      "type": "function"
    },
    {
      "constant": false,
      "inputs": [
        {
          "name": "_myid",
          "type": "bytes32"
        },
        {
          "name": "_result",
          "type": "string"
        },
        {
          "name": "_proof",
          "type": "bytes"
        }
      ],
      "name": "__callback",
      "outputs": [],
      "payable": false,
      "stateMutability": "nonpayable",
      "type": "function"
    },
    {
      "constant": false,
      "inputs": [],
      "name": "unpause",
      "outputs": [],
      "payable": false,
      "stateMutability": "nonpayable",
      "type": "function"
    },
    {
      "constant": false,
      "inputs": [
        {
          "name": "from",
          "type": "address"
        },
        {
          "name": "to",
          "type": "address"
        },
        {
          "name": "tokenId",
          "type": "uint256"
        }
      ],
      "name": "safeTransferFrom",
      "outputs": [],
      "payable": false,
      "stateMutability": "nonpayable",
      "type": "function"
    },
    {
      "constant": true,
      "inputs": [
        {
          "name": "index",
          "type": "uint256"
        }
      ],
      "name": "tokenByIndex",
      "outputs": [
        {
          "name": "",
          "type": "uint256"
        }
      ],
      "payable": false,
      "stateMutability": "view",
      "type": "function"
    },
    {
      "constant": true,
      "inputs": [
        {
          "name": "tokenId",
          "type": "uint256"
        }
      ],
      "name": "ownerOf",
      "outputs": [
        {
          "name": "",
          "type": "address"
        }
      ],
      "payable": false,
      "stateMutability": "view",
      "type": "function"
    },
    {
      "constant": true,
      "inputs": [
        {
          "name": "owner",
          "type": "address"
        }
      ],
      "name": "balanceOf",
      "outputs": [
        {
          "name": "",
          "type": "uint256"
        }
      ],
      "payable": false,
      "stateMutability": "view",
      "type": "function"
    },
    {
      "constant": false,
      "inputs": [],
      "name": "pause",
      "outputs": [],
      "payable": false,
      "stateMutability": "nonpayable",
      "type": "function"
    },
    {
      "constant": true,
      "inputs": [],
      "name": "owner",
      "outputs": [
        {
          "name": "",
          "type": "address"
        }
      ],
      "payable": false,
      "stateMutability": "view",
      "type": "function"
    },
    {
      "constant": true,
      "inputs": [],
      "name": "symbol",
      "outputs": [
        {
          "name": "",
          "type": "string"
        }
      ],
      "payable": false,
      "stateMutability": "view",
      "type": "function"
    },
    {
      "constant": false,
      "inputs": [
        {
          "name": "to",
          "type": "address"
        },
        {
          "name": "approved",
          "type": "bool"
        }
      ],
      "name": "setApprovalForAll",
      "outputs": [],
      "payable": false,
      "stateMutability": "nonpayable",
      "type": "function"
    },
    {
      "constant": false,
      "inputs": [
        {
          "name": "from",
          "type": "address"
        },
        {
          "name": "to",
          "type": "address"
        },
        {
          "name": "tokenId",
          "type": "uint256"
        },
        {
          "name": "_data",
          "type": "bytes"
        }
      ],
      "name": "safeTransferFrom",
      "outputs": [],
      "payable": false,
      "stateMutability": "nonpayable",
      "type": "function"
    },
    {
      "constant": true,
      "inputs": [
        {
          "name": "tokenId",
          "type": "uint256"
        }
      ],
      "name": "tokenURI",
      "outputs": [
        {
          "name": "",
          "type": "string"
        }
      ],
      "payable": false,
      "stateMutability": "view",
      "type": "function"
    },
    {
      "constant": true,
      "inputs": [],
      "name": "baseTokenURI",
      "outputs": [
        {
          "name": "",
          "type": "string"
        }
      ],
      "payable": false,
      "stateMutability": "view",
      "type": "function"
    },
    {
      "constant": true,
      "inputs": [
        {
          "name": "owner",
          "type": "address"
        },
        {
          "name": "operator",
          "type": "address"
        }
      ],
      "name": "isApprovedForAll",
      "outputs": [
        {
          "name": "",
          "type": "bool"
        }
      ],
      "payable": false,
      "stateMutability": "view",
      "type": "function"
    },
    {
      "constant": false,
      "inputs": [
        {
          "name": "newOwner",
          "type": "address"
        }
      ],
      "name": "transferOwnership",
      "outputs": [],
      "payable": false,
      "stateMutability": "nonpayable",
      "type": "function"
    },
    {
      "constant": false,
      "inputs": [
        {
          "name": "a",
          "type": "uint256[2]"
        },
        {
          "name": "a_p",
          "type": "uint256[2]"
        },
        {
          "name": "b",
          "type": "uint256[2][2]"
        },
        {
          "name": "b_p",
          "type": "uint256[2]"
        },
        {
          "name": "c",
          "type": "uint256[2]"
        },
        {
          "name": "c_p",
          "type": "uint256[2]"
        },
        {
          "name": "h",
          "type": "uint256[2]"
        },
        {
          "name": "k",
          "type": "uint256[2]"
        },
        {
          "name": "input",
          "type": "uint256[2]"
        }
      ],
      "name": "verifyTx",
      "outputs": [
        {
          "name": "r",
          "type": "bool"
        }
      ],
      "payable": false,
      "stateMutability": "nonpayable",
      "type": "function"
    },
    {
      "anonymous": false,
      "inputs": [
        {
          "indexed": false,
          "name": "key",
          "type": "bytes32"
        },
        {
          "indexed": false,
          "name": "addr",
          "type": "address"
        },
        {
          "indexed": false,
          "name": "tokenId",
          "type": "uint256"
        }
      ],
      "name": "SolutionAdded",
      "type": "event"
    },
    {
      "anonymous": false,
      "inputs": [
        {
          "indexed": true,
          "name": "from",
          "type": "address"
        },
        {
          "indexed": true,
          "name": "to",
          "type": "address"
        },
        {
          "indexed": true,
          "name": "tokenId",
          "type": "uint256"
        }
      ],
      "name": "Transfer",
      "type": "event"
    },
    {
      "anonymous": false,
      "inputs": [
        {
          "indexed": true,
          "name": "owner",
          "type": "address"
        },
        {
          "indexed": true,
          "name": "approved",
          "type": "address"
        },
        {
          "indexed": true,
          "name": "tokenId",
          "type": "uint256"
        }
      ],
      "name": "Approval",
      "type": "event"
    },
    {
      "anonymous": false,
      "inputs": [
        {
          "indexed": true,
          "name": "owner",
          "type": "address"
        },
        {
          "indexed": true,
          "name": "operator",
          "type": "address"
        },
        {
          "indexed": false,
          "name": "approved",
          "type": "bool"
        }
      ],
      "name": "ApprovalForAll",
      "type": "event"
    },
    {
      "anonymous": false,
      "inputs": [
        {
          "indexed": false,
          "name": "account",
          "type": "address"
        }
      ],
      "name": "Paused",
      "type": "event"
    },
    {
      "anonymous": false,
      "inputs": [
        {
          "indexed": false,
          "name": "account",
          "type": "address"
        }
      ],
      "name": "Unpaused",
      "type": "event"
    },
    {
      "anonymous": false,
      "inputs": [
        {
          "indexed": true,
          "name": "previousOwner",
          "type": "address"
        },
        {
          "indexed": true,
          "name": "newOwner",
          "type": "address"
        }
      ],
      "name": "OwnershipTransferred",
      "type": "event"
    },
    {
      "anonymous": false,
      "inputs": [
        {
          "indexed": false,
          "name": "s",
          "type": "string"
        }
      ],
      "name": "Verified",
      "type": "event"
    },
    {
      "constant": false,
      "inputs": [
        {
          "name": "addr",
          "type": "address"
        },
        {
          "name": "tokenId",
          "type": "uint256"
        },
        {
          "name": "a",
          "type": "uint256[2]"
        },
        {
          "name": "a_p",
          "type": "uint256[2]"
        },
        {
          "name": "b",
          "type": "uint256[2][2]"
        },
        {
          "name": "b_p",
          "type": "uint256[2]"
        },
        {
          "name": "c",
          "type": "uint256[2]"
        },
        {
          "name": "c_p",
          "type": "uint256[2]"
        },
        {
          "name": "h",
          "type": "uint256[2]"
        },
        {
          "name": "k",
          "type": "uint256[2]"
        },
        {
          "name": "input",
          "type": "uint256[2]"
        }
      ],
      "name": "addSolution",
      "outputs": [],
      "payable": false,
      "stateMutability": "nonpayable",
      "type": "function"
    },
    {
      "constant": false,
      "inputs": [
        {
          "name": "addr",
          "type": "address"
        },
        {
          "name": "tokenId",
          "type": "uint256"
        }
      ],
      "name": "mint",
      "outputs": [
        {
          "name": "",
          "type": "bool"
        }
      ],
      "payable": false,
      "stateMutability": "nonpayable",
      "type": "function"
    }
  ],
  "bytecode": "0x60806040526040805190810160405280600e81526020017f424b4b204c616e6420546f6b656e0000000000000000000000000000000000008152506040805190810160405280600581526020017f424b4b4c54000000000000000000000000000000000000000000000000000000815250606060405190810160405280603f81526020016200552c603f9139336000806101000a81548173ffffffffffffffffffffffffffffffffffffffff021916908373ffffffffffffffffffffffffffffffffffffffff1602179055506000809054906101000a900473ffffffffffffffffffffffffffffffffffffffff1673ffffffffffffffffffffffffffffffffffffffff16600073ffffffffffffffffffffffffffffffffffffffff167f8be0079c531659141344cd1fd0a4f28419497f9722a3daafe3b4186f6b6457e060405160405180910390a360008060146101000a81548160ff0219169083151502179055506200019e6301ffc9a77c010000000000000000000000000000000000000000000000000000000002620002a9640100000000026401000000009004565b620001db6380ac58cd7c010000000000000000000000000000000000000000000000000000000002620002a9640100000000026401000000009004565b6200021863780e9d637c010000000000000000000000000000000000000000000000000000000002620002a9640100000000026401000000009004565b82600f90805190602001906200023092919062000367565b5081601090805190602001906200024992919062000367565b5080601190805190602001906200026292919062000367565b50620002a0635b5e139f7c010000000000000000000000000000000000000000000000000000000002620002a9640100000000026401000000009004565b50505062000416565b63ffffffff7c010000000000000000000000000000000000000000000000000000000002817bffffffffffffffffffffffffffffffffffffffffffffffffffffffff191614151515620002fb57600080fd5b6001806000837bffffffffffffffffffffffffffffffffffffffffffffffffffffffff19167bffffffffffffffffffffffffffffffffffffffffffffffffffffffff1916815260200190815260200160002060006101000a81548160ff02191690831515021790555050565b828054600181600116156101000203166002900490600052602060002090601f016020900481019282601f10620003aa57805160ff1916838001178555620003db565b82800160010185558215620003db579182015b82811115620003da578251825591602001919060010190620003bd565b5b509050620003ea9190620003ee565b5090565b6200041391905b808211156200040f576000816000905550600101620003f5565b5090565b90565b61510680620004266000396000f3fe608060405234801561001057600080fd5b50600436106101ab576000357c0100000000000000000000000000000000000000000000000000000000900480636352211e116100fb578063a22cb465116100b4578063d547cfb71161008e578063d547cfb714610dec578063e985e9c514610e6f578063f2fde38b14610eeb578063fe01ff6214610f2f576101ab565b8063a22cb46514610bf0578063b88d4fde14610c40578063c87b56dd14610d45576101ab565b80636352211e1461078357806370a08231146107f157806373f3be36146108495780638456cb5914610b195780638da5cb5b14610b2357806395d89b4114610b6d576101ab565b806327dc297e116101685780633f4ba83a116101425780633f4ba83a1461066357806340c10f191461066d57806342842e0e146106d35780634f6ccce714610741576101ab565b806327dc297e146103e05780632f745c59146104a557806338bbfa5014610507576101ab565b806301ffc9a7146101b057806306fdde0314610215578063081812fc14610298578063095ea7b31461030657806318160ddd1461035457806323b872dd14610372575b600080fd5b6101fb600480360360208110156101c657600080fd5b8101908080357bffffffffffffffffffffffffffffffffffffffffffffffffffffffff191690602001909291905050506111ed565b604051808215151515815260200191505060405180910390f35b61021d611255565b6040518080602001828103825283818151815260200191508051906020019080838360005b8381101561025d578082015181840152602081019050610242565b50505050905090810190601f16801561028a5780820380516001836020036101000a031916815260200191505b509250505060405180910390f35b6102c4600480360360208110156102ae57600080fd5b81019080803590602001909291905050506112f7565b604051808273ffffffffffffffffffffffffffffffffffffffff1673ffffffffffffffffffffffffffffffffffffffff16815260200191505060405180910390f35b6103526004803603604081101561031c57600080fd5b81019080803573ffffffffffffffffffffffffffffffffffffffff16906020019092919080359060200190929190505050611334565b005b61035c61154d565b6040518082815260200191505060405180910390f35b6103de6004803603606081101561038857600080fd5b81019080803573ffffffffffffffffffffffffffffffffffffffff169060200190929190803573ffffffffffffffffffffffffffffffffffffffff1690602001909291908035906020019092919050505061155a565b005b6104a3600480360360408110156103f657600080fd5b81019080803590602001909291908035906020019064010000000081111561041d57600080fd5b82018360208201111561042f57600080fd5b8035906020019184600183028401116401000000008311171561045157600080fd5b91908080601f016020809104026020016040519081016040528093929190818152602001838380828437600081840152601f19601f82011690508083019250505050505050919291929050505061157f565b005b6104f1600480360360408110156104bb57600080fd5b81019080803573ffffffffffffffffffffffffffffffffffffffff169060200190929190803590602001909291905050506115c2565b6040518082815260200191505060405180910390f35b6106616004803603606081101561051d57600080fd5b81019080803590602001909291908035906020019064010000000081111561054457600080fd5b82018360208201111561055657600080fd5b8035906020019184600183028401116401000000008311171561057857600080fd5b91908080601f016020809104026020016040519081016040528093929190818152602001838380828437600081840152601f19601f820116905080830192505050505050509192919290803590602001906401000000008111156105db57600080fd5b8201836020820111156105ed57600080fd5b8035906020019184600183028401116401000000008311171561060f57600080fd5b91908080601f016020809104026020016040519081016040528093929190818152602001838380828437600081840152601f19601f820116905080830192505050505050509192919290505050611639565b005b61066b61163e565b005b6106b96004803603604081101561068357600080fd5b81019080803573ffffffffffffffffffffffffffffffffffffffff169060200190929190803590602001909291905050506117e8565b604051808215151515815260200191505060405180910390f35b61073f600480360360608110156106e957600080fd5b81019080803573ffffffffffffffffffffffffffffffffffffffff169060200190929190803573ffffffffffffffffffffffffffffffffffffffff169060200190929190803590602001909291905050506118b9565b005b61076d6004803603602081101561075757600080fd5b81019080803590602001909291905050506118da565b6040518082815260200191505060405180910390f35b6107af6004803603602081101561079957600080fd5b8101908080359060200190929190505050611912565b604051808273ffffffffffffffffffffffffffffffffffffffff1673ffffffffffffffffffffffffffffffffffffffff16815260200191505060405180910390f35b6108336004803603602081101561080757600080fd5b81019080803573ffffffffffffffffffffffffffffffffffffffff16906020019092919050505061194f565b6040518082815260200191505060405180910390f35b610b1760048036036102c081101561086057600080fd5b81019080803573ffffffffffffffffffffffffffffffffffffffff1690602001909291908035906020019092919080604001906002806020026040519081016040528092919082600260200280828437600081840152601f19601f820116905080830192505050505050919291929080604001906002806020026040519081016040528092919082600260200280828437600081840152601f19601f82011690508083019250505050505091929192908060800190600280602002604051908101604052809291906000905b82821015610980578382604002016002806020026040519081016040528092919082600260200280828437600081840152601f19601f8201169050808301925050505050508152602001906001019061092c565b50505050919291929080604001906002806020026040519081016040528092919082600260200280828437600081840152601f19601f820116905080830192505050505050919291929080604001906002806020026040519081016040528092919082600260200280828437600081840152601f19601f820116905080830192505050505050919291929080604001906002806020026040519081016040528092919082600260200280828437600081840152601f19601f820116905080830192505050505050919291929080604001906002806020026040519081016040528092919082600260200280828437600081840152601f19601f820116905080830192505050505050919291929080604001906002806020026040519081016040528092919082600260200280828437600081840152601f19601f820116905080830192505050505050919291929080604001906002806020026040519081016040528092919082600260200280828437600081840152601f19601f820116905080830192505050505050919291929050505061199f565b005b610b21611e40565b005b610b2b611fec565b604051808273ffffffffffffffffffffffffffffffffffffffff1673ffffffffffffffffffffffffffffffffffffffff16815260200191505060405180910390f35b610b75612015565b6040518080602001828103825283818151815260200191508051906020019080838360005b83811015610bb5578082015181840152602081019050610b9a565b50505050905090810190601f168015610be25780820380516001836020036101000a031916815260200191505b509250505060405180910390f35b610c3e60048036036040811015610c0657600080fd5b81019080803573ffffffffffffffffffffffffffffffffffffffff1690602001909291908035151590602001909291905050506120b7565b005b610d4360048036036080811015610c5657600080fd5b81019080803573ffffffffffffffffffffffffffffffffffffffff169060200190929190803573ffffffffffffffffffffffffffffffffffffffff1690602001909291908035906020019092919080359060200190640100000000811115610cbd57600080fd5b820183602082011115610ccf57600080fd5b80359060200191846001830284011164010000000083111715610cf157600080fd5b91908080601f016020809104026020016040519081016040528093929190818152602001838380828437600081840152601f19601f8201169050808301925050505050505091929192905050506121f3565b005b610d7160048036036020811015610d5b57600080fd5b810190808035906020019092919050505061221b565b6040518080602001828103825283818151815260200191508051906020019080838360005b83811015610db1578082015181840152602081019050610d96565b50505050905090810190601f168015610dde5780820380516001836020036101000a031916815260200191505b509250505060405180910390f35b610df46122e4565b6040518080602001828103825283818151815260200191508051906020019080838360005b83811015610e34578082015181840152602081019050610e19565b50505050905090810190601f168015610e615780820380516001836020036101000a031916815260200191505b509250505060405180910390f35b610ed160048036036040811015610e8557600080fd5b81019080803573ffffffffffffffffffffffffffffffffffffffff169060200190929190803573ffffffffffffffffffffffffffffffffffffffff169060200190929190505050612386565b604051808215151515815260200191505060405180910390f35b610f2d60048036036020811015610f0157600080fd5b81019080803573ffffffffffffffffffffffffffffffffffffffff16906020019092919050505061241a565b005b6111d36004803603610280811015610f4657600080fd5b8101908080604001906002806020026040519081016040528092919082600260200280828437600081840152601f19601f820116905080830192505050505050919291929080604001906002806020026040519081016040528092919082600260200280828437600081840152601f19601f82011690508083019250505050505091929192908060800190600280602002604051908101604052809291906000905b8282101561103c578382604002016002806020026040519081016040528092919082600260200280828437600081840152601f19601f82011690508083019250505050505081526020019060010190610fe8565b50505050919291929080604001906002806020026040519081016040528092919082600260200280828437600081840152601f19601f820116905080830192505050505050919291929080604001906002806020026040519081016040528092919082600260200280828437600081840152601f19601f820116905080830192505050505050919291929080604001906002806020026040519081016040528092919082600260200280828437600081840152601f19601f820116905080830192505050505050919291929080604001906002806020026040519081016040528092919082600260200280828437600081840152601f19601f820116905080830192505050505050919291929080604001906002806020026040519081016040528092919082600260200280828437600081840152601f19601f820116905080830192505050505050919291929080604001906002806020026040519081016040528092919082600260200280828437600081840152601f19601f82011690508083019250505050505091929192905050506124cd565b604051808215151515815260200191505060405180910390f35b600060016000837bffffffffffffffffffffffffffffffffffffffffffffffffffffffff19167bffffffffffffffffffffffffffffffffffffffffffffffffffffffff1916815260200190815260200160002060009054906101000a900460ff169050919050565b6060600f8054600181600116156101000203166002900480601f0160208091040260200160405190810160405280929190818152602001828054600181600116156101000203166002900480156112ed5780601f106112c2576101008083540402835291602001916112ed565b820191906000526020600020905b8154815290600101906020018083116112d057829003601f168201915b5050505050905090565b60006003600083815260200190815260200160002060009054906101000a900473ffffffffffffffffffffffffffffffffffffffff169050919050565b61133d81611912565b73ffffffffffffffffffffffffffffffffffffffff168273ffffffffffffffffffffffffffffffffffffffff16141515156113c3576040517f08c379a000000000000000000000000000000000000000000000000000000000815260040180806020018281038252602f815260200180615038602f913960400191505060405180910390fd5b6000809054906101000a900473ffffffffffffffffffffffffffffffffffffffff1673ffffffffffffffffffffffffffffffffffffffff163373ffffffffffffffffffffffffffffffffffffffff16148061144557506114446000809054906101000a900473ffffffffffffffffffffffffffffffffffffffff1633612386565b5b151561149c576040517f08c379a000000000000000000000000000000000000000000000000000000000815260040180806020018281038252602f815260200180615067602f913960400191505060405180910390fd5b816003600083815260200190815260200160002060006101000a81548173ffffffffffffffffffffffffffffffffffffffff021916908373ffffffffffffffffffffffffffffffffffffffff160217905550803373ffffffffffffffffffffffffffffffffffffffff168373ffffffffffffffffffffffffffffffffffffffff167f8c5be1e5ebec7d5bd14f71427d1e84f3dd0314c0f7b2291e5b200ac8c7c3b92560405160405180910390a45050565b6000600880549050905090565b6115643382612886565b151561156f57600080fd5b61157a83838361291b565b505050565b6115be828260006040519080825280601f01601f1916602001820160405280156115b85781602001600182028038833980820191505090505b50611639565b5050565b60006115cd8361194f565b821015156115da57600080fd5b600660008473ffffffffffffffffffffffffffffffffffffffff1673ffffffffffffffffffffffffffffffffffffffff1681526020019081526020016000208281548110151561162657fe5b9060005260206000200154905092915050565b505050565b3373ffffffffffffffffffffffffffffffffffffffff166000809054906101000a900473ffffffffffffffffffffffffffffffffffffffff1673ffffffffffffffffffffffffffffffffffffffff161415156116e5576040517f08c379a00000000000000000000000000000000000000000000000000000000081526004018080602001828103825260218152602001806150966021913960400191505060405180910390fd5b600060149054906101000a900460ff161515611769576040517f08c379a00000000000000000000000000000000000000000000000000000000081526004018080602001828103825260168152602001807f436f6e7472616374206973206e6f74207061757365640000000000000000000081525060200191505060405180910390fd5b60008060146101000a81548160ff0219169083151502179055507f5db9ee0a495bf2e6ff9c91a7834c1ba4fdd244a5e8aa4e537bd38aeae4b073aa33604051808273ffffffffffffffffffffffffffffffffffffffff1673ffffffffffffffffffffffffffffffffffffffff16815260200191505060405180910390a1565b60008073ffffffffffffffffffffffffffffffffffffffff166013600084815260200190815260200160002060020160009054906101000a900473ffffffffffffffffffffffffffffffffffffffff1673ffffffffffffffffffffffffffffffffffffffff16141515156118a7576040517f08c379a0000000000000000000000000000000000000000000000000000000008152600401808060200182810382526021815260200180614fd36021913960400191505060405180910390fd5b6118b1838361293f565b905092915050565b6118d583838360206040519081016040528060008152506121f3565b505050565b60006118e461154d565b821015156118f157600080fd5b60088281548110151561190057fe5b90600052602060002001549050919050565b60006002600083815260200190815260200160002060009054906101000a900473ffffffffffffffffffffffffffffffffffffffff169050919050565b6000611998600460008473ffffffffffffffffffffffffffffffffffffffff1673ffffffffffffffffffffffffffffffffffffffff168152602001908152602001600020612a05565b9050919050565b60008a8c8b8b8b8b8b8b8b8b8b604051602001808c81526020018b73ffffffffffffffffffffffffffffffffffffffff1673ffffffffffffffffffffffffffffffffffffffff166c010000000000000000000000000281526014018a600260200280838360005b83811015611a21578082015181840152602081019050611a06565b5050505090500189600260200280838360005b83811015611a4f578082015181840152602081019050611a34565b505050509050018860026000925b81841015611aa35782846020020151600260200280838360005b83811015611a92578082015181840152602081019050611a77565b505050509050019260010192611a5d565b9250505087600260200280838360005b83811015611ace578082015181840152602081019050611ab3565b5050505090500186600260200280838360005b83811015611afc578082015181840152602081019050611ae1565b5050505090500185600260200280838360005b83811015611b2a578082015181840152602081019050611b0f565b5050505090500184600260200280838360005b83811015611b58578082015181840152602081019050611b3d565b5050505090500183600260200280838360005b83811015611b86578082015181840152602081019050611b6b565b5050505090500182600260200280838360005b83811015611bb4578082015181840152602081019050611b99565b505050509050019b5050505050505050505050506040516020818303038152906040528051906020012090506014600082815260200190815260200160002060009054906101000a900460ff16151515611c59576040517f08c379a0000000000000000000000000000000000000000000000000000000008152600401808060200182810382526021815260200180614fd36021913960400191505060405180910390fd5b6000611c6c8b8b8b8b8b8b8b8b8b6124cd565b9050801515611ce3576040517f08c379a00000000000000000000000000000000000000000000000000000000081526004018080602001828103825260168152602001807f5468652070726f6f66206973206e6f742076616c69640000000000000000000081525060200191505060405180910390fd5b611ceb614cd3565b6060604051908101604052808481526020018e81526020018f73ffffffffffffffffffffffffffffffffffffffff16815250905080601360008f8152602001908152602001600020600082015181600001556020820151816001015560408201518160020160006101000a81548173ffffffffffffffffffffffffffffffffffffffff021916908373ffffffffffffffffffffffffffffffffffffffff16021790555090505060016014600085815260200190815260200160002060006101000a81548160ff0219169083151502179055507fd54d9ef5d3801dc9b4c79ac9cb0d5ed3b9c83d168bd86bb6e937ca7df70392da838f8f604051808481526020018373ffffffffffffffffffffffffffffffffffffffff1673ffffffffffffffffffffffffffffffffffffffff168152602001828152602001935050505060405180910390a15050505050505050505050505050565b3373ffffffffffffffffffffffffffffffffffffffff166000809054906101000a900473ffffffffffffffffffffffffffffffffffffffff1673ffffffffffffffffffffffffffffffffffffffff16141515611ee7576040517f08c379a00000000000000000000000000000000000000000000000000000000081526004018080602001828103825260218152602001806150966021913960400191505060405180910390fd5b600060149054906101000a900460ff16151515611f6c576040517f08c379a00000000000000000000000000000000000000000000000000000000081526004018080602001828103825260128152602001807f436f6e747261637420697320706175736564000000000000000000000000000081525060200191505060405180910390fd5b6001600060146101000a81548160ff0219169083151502179055507f62e78cea01bee320cd4e420270b5ea74000d11b0c9f74754ebdbfc544b05a25833604051808273ffffffffffffffffffffffffffffffffffffffff1673ffffffffffffffffffffffffffffffffffffffff16815260200191505060405180910390a1565b60008060009054906101000a900473ffffffffffffffffffffffffffffffffffffffff16905090565b606060108054600181600116156101000203166002900480601f0160208091040260200160405190810160405280929190818152602001828054600181600116156101000203166002900480156120ad5780601f10612082576101008083540402835291602001916120ad565b820191906000526020600020905b81548152906001019060200180831161209057829003601f168201915b5050505050905090565b3373ffffffffffffffffffffffffffffffffffffffff168273ffffffffffffffffffffffffffffffffffffffff16141515156120f257600080fd5b80600560003373ffffffffffffffffffffffffffffffffffffffff1673ffffffffffffffffffffffffffffffffffffffff16815260200190815260200160002060008473ffffffffffffffffffffffffffffffffffffffff1673ffffffffffffffffffffffffffffffffffffffff16815260200190815260200160002060006101000a81548160ff0219169083151502179055508173ffffffffffffffffffffffffffffffffffffffff163373ffffffffffffffffffffffffffffffffffffffff167f17307eab39ab6107e8899845ad3d59bd9653f200f220920489ca2b5937696c3183604051808215151515815260200191505060405180910390a35050565b6121fe84848461155a565b61220a84848484612a13565b151561221557600080fd5b50505050565b606061222682612c36565b151561223157600080fd5b601260008381526020019081526020016000208054600181600116156101000203166002900480601f0160208091040260200160405190810160405280929190818152602001828054600181600116156101000203166002900480156122d85780601f106122ad576101008083540402835291602001916122d8565b820191906000526020600020905b8154815290600101906020018083116122bb57829003601f168201915b50505050509050919050565b606060118054600181600116156101000203166002900480601f01602080910402602001604051908101604052809291908181526020018280546001816001161561010002031660029004801561237c5780601f106123515761010080835404028352916020019161237c565b820191906000526020600020905b81548152906001019060200180831161235f57829003601f168201915b5050505050905090565b6000600560008473ffffffffffffffffffffffffffffffffffffffff1673ffffffffffffffffffffffffffffffffffffffff16815260200190815260200160002060008373ffffffffffffffffffffffffffffffffffffffff1673ffffffffffffffffffffffffffffffffffffffff16815260200190815260200160002060009054906101000a900460ff16905092915050565b3373ffffffffffffffffffffffffffffffffffffffff166000809054906101000a900473ffffffffffffffffffffffffffffffffffffffff1673ffffffffffffffffffffffffffffffffffffffff161415156124c1576040517f08c379a00000000000000000000000000000000000000000000000000000000081526004018080602001828103825260218152602001806150966021913960400191505060405180910390fd5b6124ca81612ca8565b50565b60006124d7614d0e565b60408051908101604052808c60006002811015156124f157fe5b602002015181526020018c600160028110151561250a57fe5b6020020151815250816000018190525060408051908101604052808b600060028110151561253457fe5b602002015181526020018b600160028110151561254d57fe5b60200201518152508160200181905250604080519081016040528060408051908101604052808c600060028110151561258257fe5b6020020151600060028110151561259557fe5b602002015181526020018c60006002811015156125ae57fe5b602002015160016002811015156125c157fe5b6020020151815250815260200160408051908101604052808c60016002811015156125e857fe5b602002015160006002811015156125fb57fe5b602002015181526020018c600160028110151561261457fe5b6020020151600160028110151561262757fe5b60200201518152508152508160400181905250604080519081016040528089600060028110151561265457fe5b6020020151815260200189600160028110151561266d57fe5b60200201518152508160600181905250604080519081016040528088600060028110151561269757fe5b602002015181526020018860016002811015156126b057fe5b6020020151815250816080018190525060408051908101604052808760006002811015156126da57fe5b602002015181526020018760016002811015156126f357fe5b60200201518152508160a00181905250604080519081016040528086600060028110151561271d57fe5b6020020151815260200186600160028110151561273657fe5b60200201518152508160e00181905250604080519081016040528085600060028110151561276057fe5b6020020151815260200185600160028110151561277957fe5b60200201518152508160c00181905250606060026040519080825280602002602001820160405280156127bb5781602001602082028038833980820191505090505b50905060008090505b60028110156128095784816002811015156127db57fe5b602002015182828151811015156127ee57fe5b906020019060200201818152505080806001019150506127c4565b5060006128168284612df4565b1415612872577f3f3cfdb26fb5f9f1786ab4f1a1f9cd4c0b5e726cbdfc26e495261731aad44e39604051808060200182810382526022815260200180614ff46022913960400191505060405180910390a1600192505050612879565b6000925050505b9998505050505050505050565b60008061289283611912565b90508073ffffffffffffffffffffffffffffffffffffffff168473ffffffffffffffffffffffffffffffffffffffff16148061290157508373ffffffffffffffffffffffffffffffffffffffff166128e9846112f7565b73ffffffffffffffffffffffffffffffffffffffff16145b8061291257506129118185612386565b5b91505092915050565b612926838383613034565b6129308382613322565b61293a82826134c6565b505050565b60003373ffffffffffffffffffffffffffffffffffffffff166000809054906101000a900473ffffffffffffffffffffffffffffffffffffffff1673ffffffffffffffffffffffffffffffffffffffff161415156129e8576040517f08c379a00000000000000000000000000000000000000000000000000000000081526004018080602001828103825260218152602001806150966021913960400191505060405180910390fd5b6129f2838361358d565b6129fb826135ae565b6001905092915050565b600081600001549050919050565b6000612a348473ffffffffffffffffffffffffffffffffffffffff16613701565b1515612a435760019050612c2e565b60008473ffffffffffffffffffffffffffffffffffffffff1663150b7a02338887876040518563ffffffff167c0100000000000000000000000000000000000000000000000000000000028152600401808573ffffffffffffffffffffffffffffffffffffffff1673ffffffffffffffffffffffffffffffffffffffff1681526020018473ffffffffffffffffffffffffffffffffffffffff1673ffffffffffffffffffffffffffffffffffffffff16815260200183815260200180602001828103825283818151815260200191508051906020019080838360005b83811015612b3a578082015181840152602081019050612b1f565b50505050905090810190601f168015612b675780820380516001836020036101000a031916815260200191505b5095505050505050602060405180830381600087803b158015612b8957600080fd5b505af1158015612b9d573d6000803e3d6000fd5b505050506040513d6020811015612bb357600080fd5b8101908080519060200190929190505050905063150b7a027c0100000000000000000000000000000000000000000000000000000000027bffffffffffffffffffffffffffffffffffffffffffffffffffffffff1916817bffffffffffffffffffffffffffffffffffffffffffffffffffffffff1916149150505b949350505050565b6000806002600084815260200190815260200160002060009054906101000a900473ffffffffffffffffffffffffffffffffffffffff169050600073ffffffffffffffffffffffffffffffffffffffff168173ffffffffffffffffffffffffffffffffffffffff161415915050919050565b600073ffffffffffffffffffffffffffffffffffffffff168173ffffffffffffffffffffffffffffffffffffffff1614151515612d30576040517f08c379a00000000000000000000000000000000000000000000000000000000081526004018080602001828103825260248152602001806150b76024913960400191505060405180910390fd5b60008060009054906101000a900473ffffffffffffffffffffffffffffffffffffffff169050816000806101000a81548173ffffffffffffffffffffffffffffffffffffffff021916908373ffffffffffffffffffffffffffffffffffffffff1602179055508173ffffffffffffffffffffffffffffffffffffffff168173ffffffffffffffffffffffffffffffffffffffff167f8be0079c531659141344cd1fd0a4f28419497f9722a3daafe3b4186f6b6457e060405160405180910390a35050565b6000612dfe614d84565b612e06613714565b90508060e00151516001855101141515612e1f57600080fd5b612e27614df4565b6040805190810160405280600081526020016000815250905060008090505b8551811015612ea657612e9782612e928560e0015160018501815181101515612e6b57fe5b906020019060200201518985815181101515612e8357fe5b90602001906020020151613d55565b613df1565b91508080600101915050612e46565b50612ecd818360e001516000815181101515612ebe57fe5b90602001906020020151613df1565b9050612ef684600001518360000151612ee98760200151613eae565b612ef1613f4a565b614014565b1515612f075760019250505061302e565b612f2e82602001518560400151612f218760600151613eae565b612f29613f4a565b614014565b1515612f3f5760029250505061302e565b612f6684608001518360400151612f598760a00151613eae565b612f61613f4a565b614014565b1515612f775760039250505061302e565b612fc38460c001518360600151612fa7612fa285612f9d8a600001518b60800151613df1565b613df1565b613eae565b8560a00151612fb98760800151613eae565b8960400151614120565b1515612fd45760049250505061302e565b613016612fe5828660000151613df1565b8560400151612ff78760e00151613eae565b8560c001516130098960800151613eae565b613011613f4a565b614120565b15156130275760059250505061302e565b6000925050505b92915050565b8273ffffffffffffffffffffffffffffffffffffffff1661305482611912565b73ffffffffffffffffffffffffffffffffffffffff161415156130df576040517f08c379a00000000000000000000000000000000000000000000000000000000081526004018080602001828103825260158152602001807f596f7520617265206e6f7420746865206f776e6572000000000000000000000081525060200191505060405180910390fd5b600073ffffffffffffffffffffffffffffffffffffffff168273ffffffffffffffffffffffffffffffffffffffff161415801561313857506131368273ffffffffffffffffffffffffffffffffffffffff16613701565b155b151561318f576040517f08c379a00000000000000000000000000000000000000000000000000000000081526004018080602001828103825260228152602001806150166022913960400191505060405180910390fd5b60006003600083815260200190815260200160002060006101000a81548173ffffffffffffffffffffffffffffffffffffffff021916908373ffffffffffffffffffffffffffffffffffffffff160217905550816002600083815260200190815260200160002060006101000a81548173ffffffffffffffffffffffffffffffffffffffff021916908373ffffffffffffffffffffffffffffffffffffffff16021790555061327b600460008573ffffffffffffffffffffffffffffffffffffffff1673ffffffffffffffffffffffffffffffffffffffff168152602001908152602001600020614268565b6132c2600460008473ffffffffffffffffffffffffffffffffffffffff1673ffffffffffffffffffffffffffffffffffffffff16815260200190815260200160002061428b565b808273ffffffffffffffffffffffffffffffffffffffff168473ffffffffffffffffffffffffffffffffffffffff167fddf252ad1be2c89b69c2b068fc378daa952ba7f163c4a11628f55a4df523b3ef60405160405180910390a4505050565b600061337a6001600660008673ffffffffffffffffffffffffffffffffffffffff1673ffffffffffffffffffffffffffffffffffffffff168152602001908152602001600020805490506142a190919063ffffffff16565b9050600060076000848152602001908152602001600020549050818114151561346d576000600660008673ffffffffffffffffffffffffffffffffffffffff1673ffffffffffffffffffffffffffffffffffffffff168152602001908152602001600020838154811015156133eb57fe5b9060005260206000200154905080600660008773ffffffffffffffffffffffffffffffffffffffff1673ffffffffffffffffffffffffffffffffffffffff1681526020019081526020016000208381548110151561344557fe5b9060005260206000200181905550816007600083815260200190815260200160002081905550505b600660008573ffffffffffffffffffffffffffffffffffffffff1673ffffffffffffffffffffffffffffffffffffffff1681526020019081526020016000208054809190600190036134bf9190614e0e565b5050505050565b600660008373ffffffffffffffffffffffffffffffffffffffff1673ffffffffffffffffffffffffffffffffffffffff168152602001908152602001600020805490506007600083815260200190815260200160002081905550600660008373ffffffffffffffffffffffffffffffffffffffff1673ffffffffffffffffffffffffffffffffffffffff1681526020019081526020016000208190806001815401808255809150509060018203906000526020600020016000909192909190915055505050565b61359782826142c3565b6135a182826134c6565b6135aa81614439565b5050565b6135b781612c36565b151561362b576040517f08c379a00000000000000000000000000000000000000000000000000000000081526004018080602001828103825260148152602001807f546f6b656e20646f6573206e6f7420657869737400000000000000000000000081525060200191505060405180910390fd5b6136d760118054600181600116156101000203166002900480601f0160208091040260200160405190810160405280929190818152602001828054600181600116156101000203166002900480156136c45780601f10613699576101008083540402835291602001916136c4565b820191906000526020600020905b8154815290600101906020018083116136a757829003601f168201915b50505050506136d283614485565b6145de565b6012600083815260200190815260200160002090805190602001906136fd929190614e3a565b5050565b600080823b905060008111915050919050565b61371c614d84565b604080519081016040528060408051908101604052807f2269b0004200bd36ac12a6ea4f743c558b14dc716a291fe2e0ffccac7c13f91b81526020017f23f97c7712a0d868b511bffa2ad228909134e6baef5b585232b19f7861c4c9ea815250815260200160408051908101604052807f1569d23a29f522db4fbbef1fed122390e8e9f54afbd04a6e1e7868d8705c816781526020017f1f5259605c9d530a69db91da928cf15021f61d58dce8a21da20e7684db1e7bbc815250815250816000018190525060408051908101604052807f0e7a3226103cd29fd90845565e7250177b0de4f70321808da2b2928c71e88f1681526020017f10888fa90d6de98bef09f2aaab762f070c71feaa32bbbe042839f881dd7edd798152508160200181905250604080519081016040528060408051908101604052807f2130428c2def2466b0565b0e05320d75acb1dee23d0f55abbc358652d554aa0581526020017f0f360ce5e8fddc6b3ec5d796c1989dee5f48f8666b72ddb9de0f63415ef2931e815250815260200160408051908101604052807f28af41c10ace8f84511d3e530a5e32e4b35980d70591fac12b7d2277666246c081526020017f2da99256c872afc254623ffda1fbef8f195c8d1fa33e09bebdafec0ae2bf95df8152508152508160400181905250604080519081016040528060408051908101604052807f2461c0aee20f4251a723e2bcf0630a83f29b7c50106ba2e5bb5204a4e3644f7e81526020017f2bd5b48b7540efdbaca1fc042691c1422e93bbcb9687348b3a399a40e1ef676e815250815260200160408051908101604052807f178f48853453d2efc4587fc167da767310e19894793be2a87e19333d15bc16b381526020017f1a3ec33cec4c85ceaf1fc5ed38de52685de95b9fadaf2542d2486dd158dc294d815250815250816060018190525060408051908101604052807f2c4a6990dc295485279d0e6bb66a8c13c88dd6e1789deb1ff402b32ec59f8c6a81526020017f2f2290c7d3b3f97a804bc2588b03ca7a33534842748c557d243dc94afd7109e78152508160800181905250604080519081016040528060408051908101604052807f2c7759514e0864c57ae47aef220225a6b0e3f98b7532dfe3b67d83c623a2df1881526020017f28a0f1ad2503db4eda58c4b4adbadb41ee23f60f926dbc82105ebaff7344344a815250815260200160408051908101604052807f132557a3262cdbb75d742f70966732aa4dfd092090c1006efb1bd2b499b543dd81526020017f04cae661d43d5b01c4e5dfb740a7183fabbef8df6c45113f84a35d12228d11448152508152508160a00181905250604080519081016040528060408051908101604052807f0cb9cc54aee8d82bdfc79832de9a225ca1636d634714d4b94fab9aef5421afa481526020017f22b95508f21b66b326ec0f4c3e1901d4559b8fb453a20222983f5f6bfad7e1e1815250815260200160408051908101604052807f068fec6518d419068ee607f0c8189a5cc9568fff9e449d0a66bcbbceddeefd2981526020017f0484312c5db051c8c52957c0e314df6c133133faa4b36ed60376ba1ab104281d8152508152508160c001819052506003604051908082528060200260200182016040528015613bea57816020015b613bd7614eba565b815260200190600190039081613bcf5790505b508160e0018190525060408051908101604052807f1c2e0a2ff19a3a320480474b2bc699612e04db37a1310ceef2327528dcdbcf1981526020017f22ad673303234f1cb5e5b40f622f22639ccc0accba9b2f48aa1ae15effe9404c8152508160e001516000815181101515613c5b57fe5b9060200190602002018190525060408051908101604052807f1b1eed4eb028298d9ef6ca478374cda52a14cb4899285554a6260ab7a95b019381526020017f1f08ebd59412e1390b4371f5ff59fd4ecccea9437bfcc59ac111c0c2088c7a4e8152508160e001516001815181101515613cd057fe5b9060200190602002018190525060408051908101604052807f04ead7d163ab6efeb2500877996241cefa16d3576b70d9c2043cff2acb52659d81526020017f088a928264249871c34baa767b5fd6bad6c6e0912742a2e888ce508d65ba95368152508160e001516002815181101515613d4557fe5b9060200190602002018190525090565b613d5d614df4565b613d65614ed4565b8360000151816000600381101515613d7957fe5b6020020181815250508360200151816001600381101515613d9657fe5b60200201818152505082816002600381101515613daf57fe5b6020020181815250506000606083608084600060076107d05a03f190508060008114613dda57613ddc565bfe5b50801515613de957600080fd5b505092915050565b613df9614df4565b613e01614ef7565b8360000151816000600481101515613e1557fe5b6020020181815250508360200151816001600481101515613e3257fe5b6020020181815250508260000151816002600481101515613e4f57fe5b6020020181815250508260200151816003600481101515613e6c57fe5b602002018181525050600060608360c084600060066107d05a03f190508060008114613e9757613e99565bfe5b50801515613ea657600080fd5b505092915050565b613eb6614df4565b60007f30644e72e131a029b85045b68181585d97816a916871ca8d3c208c16d87cfd47905060008360000151148015613ef3575060008360200151145b15613f17576040805190810160405280600081526020016000815250915050613f45565b604080519081016040528084600001518152602001828560200151811515613f3b57fe5b0683038152509150505b919050565b613f52614f1a565b604080519081016040528060408051908101604052807f198e9393920d483a7260bfb731fb5d25f1aa493335a9e71297e485b7aef312c281526020017f1800deef121f1e76426a00665e5c4479674322d4f75edadd46debd5cd992f6ed815250815260200160408051908101604052807f090689d0585ff075ec9e99ad690c3395bc4b313370b38ef355acdadcd122975b81526020017f12c85ea5db8c6deb4aab71808dcb408fe3d1e7690c43d37b4ce6cc0166fa7daa815250815250905090565b60006060600260405190808252806020026020018201604052801561405357816020015b614040614eba565b8152602001906001900390816140385790505b5090506060600260405190808252806020026020018201604052801561409357816020015b614080614f41565b8152602001906001900390816140785790505b509050868260008151811015156140a657fe5b90602001906020020181905250848260018151811015156140c357fe5b90602001906020020181905250858160008151811015156140e057fe5b90602001906020020181905250838160018151811015156140fd57fe5b906020019060200201819052506141148282614625565b92505050949350505050565b60006060600360405190808252806020026020018201604052801561415f57816020015b61414c614eba565b8152602001906001900390816141445790505b5090506060600360405190808252806020026020018201604052801561419f57816020015b61418c614f41565b8152602001906001900390816141845790505b509050888260008151811015156141b257fe5b90602001906020020181905250868260018151811015156141cf57fe5b90602001906020020181905250848260028151811015156141ec57fe5b906020019060200201819052508781600081518110151561420957fe5b906020019060200201819052508581600181518110151561422657fe5b906020019060200201819052508381600281518110151561424357fe5b9060200190602002018190525061425a8282614625565b925050509695505050505050565b614280600182600001546142a190919063ffffffff16565b816000018190555050565b6001816000016000828254019250508190555050565b60008282111515156142b257600080fd5b600082840390508091505092915050565b6142cc81612c36565b151515614341576040517f08c379a00000000000000000000000000000000000000000000000000000000081526004018080602001828103825260168152602001807f746f6b656e496420616c7265616479206578697374730000000000000000000081525060200191505060405180910390fd5b816002600083815260200190815260200160002060006101000a81548173ffffffffffffffffffffffffffffffffffffffff021916908373ffffffffffffffffffffffffffffffffffffffff1602179055506143da600460008473ffffffffffffffffffffffffffffffffffffffff1673ffffffffffffffffffffffffffffffffffffffff16815260200190815260200160002061428b565b808273ffffffffffffffffffffffffffffffffffffffff163373ffffffffffffffffffffffffffffffffffffffff167fddf252ad1be2c89b69c2b068fc378daa952ba7f163c4a11628f55a4df523b3ef60405160405180910390a45050565b6008805490506009600083815260200190815260200160002081905550600881908060018154018082558091505090600182039060005260206000200160009091929091909150555050565b606060008214156144cd576040805190810160405280600181526020017f300000000000000000000000000000000000000000000000000000000000000081525090506145d9565b600082905060005b6000821415156144fb578080600101915050600a828115156144f357fe5b0491506144d5565b6060816040519080825280601f01601f1916602001820160405280156145305781602001600182028038833980820191505090505b50905060006001830390505b6000861415156145d157600a8681151561455257fe5b066030017f01000000000000000000000000000000000000000000000000000000000000000282828060019003935081518110151561458d57fe5b9060200101907effffffffffffffffffffffffffffffffffffffffffffffffffffffffffffff1916908160001a905350600a868115156145c957fe5b04955061453c565b819450505050505b919050565b606061461d83836020604051908101604052806000815250602060405190810160405280600081525060206040519081016040528060008152506148b8565b905092915050565b60008151835114151561463757600080fd5b60008351905060006006820290506060816040519080825280602002602001820160405280156146765781602001602082028038833980820191505090505b50905060008090505b8381101561485457868181518110151561469557fe5b906020019060200201516000015182600060068402018151811015156146b757fe5b906020019060200201818152505086818151811015156146d357fe5b906020019060200201516020015182600160068402018151811015156146f557fe5b9060200190602002018181525050858181518110151561471157fe5b9060200190602002015160000151600060028110151561472d57fe5b6020020151826002600684020181518110151561474657fe5b9060200190602002018181525050858181518110151561476257fe5b9060200190602002015160000151600160028110151561477e57fe5b6020020151826003600684020181518110151561479757fe5b906020019060200201818152505085818151811015156147b357fe5b906020019060200201516020015160006002811015156147cf57fe5b602002015182600460068402018151811015156147e857fe5b9060200190602002018181525050858181518110151561480457fe5b9060200190602002015160200151600160028110151561482057fe5b6020020151826005600684020181518110151561483957fe5b9060200190602002018181525050808060010191505061467f565b5061485d614f68565b60006020826020860260208601600060086107d05a03f19050806000811461488457614886565bfe5b5080151561489357600080fd5b60008260006001811015156148a457fe5b602002015114159550505050505092915050565b6060808690506060869050606086905060608690506060869050606081518351855187518951010101016040519080825280601f01601f1916602001820160405280156149145781602001600182028038833980820191505090505b509050606081905060008090506000809050600090505b88518110156149de57888181518110151561494257fe5b9060200101517f010000000000000000000000000000000000000000000000000000000000000090047f01000000000000000000000000000000000000000000000000000000000000000283838060010194508151811015156149a157fe5b9060200101907effffffffffffffffffffffffffffffffffffffffffffffffffffffffffffff1916908160001a905350808060010191505061492b565b600090505b8751811015614a965787818151811015156149fa57fe5b9060200101517f010000000000000000000000000000000000000000000000000000000000000090047f0100000000000000000000000000000000000000000000000000000000000000028383806001019450815181101515614a5957fe5b9060200101907effffffffffffffffffffffffffffffffffffffffffffffffffffffffffffff1916908160001a90535080806001019150506149e3565b600090505b8651811015614b4e578681815181101515614ab257fe5b9060200101517f010000000000000000000000000000000000000000000000000000000000000090047f0100000000000000000000000000000000000000000000000000000000000000028383806001019450815181101515614b1157fe5b9060200101907effffffffffffffffffffffffffffffffffffffffffffffffffffffffffffff1916908160001a9053508080600101915050614a9b565b600090505b8551811015614c06578581815181101515614b6a57fe5b9060200101517f010000000000000000000000000000000000000000000000000000000000000090047f0100000000000000000000000000000000000000000000000000000000000000028383806001019450815181101515614bc957fe5b9060200101907effffffffffffffffffffffffffffffffffffffffffffffffffffffffffffff1916908160001a9053508080600101915050614b53565b600090505b8451811015614cbe578481815181101515614c2257fe5b9060200101517f010000000000000000000000000000000000000000000000000000000000000090047f0100000000000000000000000000000000000000000000000000000000000000028383806001019450815181101515614c8157fe5b9060200101907effffffffffffffffffffffffffffffffffffffffffffffffffffffffffffff1916908160001a9053508080600101915050614c0b565b82995050505050505050505095945050505050565b6060604051908101604052806000801916815260200160008152602001600073ffffffffffffffffffffffffffffffffffffffff1681525090565b61024060405190810160405280614d23614eba565b8152602001614d30614eba565b8152602001614d3d614f41565b8152602001614d4a614eba565b8152602001614d57614eba565b8152602001614d64614eba565b8152602001614d71614eba565b8152602001614d7e614eba565b81525090565b61032060405190810160405280614d99614f41565b8152602001614da6614eba565b8152602001614db3614f41565b8152602001614dc0614f41565b8152602001614dcd614eba565b8152602001614dda614f41565b8152602001614de7614f41565b8152602001606081525090565b604080519081016040528060008152602001600081525090565b815481835581811115614e3557818360005260206000209182019101614e349190614f8b565b5b505050565b828054600181600116156101000203166002900490600052602060002090601f016020900481019282601f10614e7b57805160ff1916838001178555614ea9565b82800160010185558215614ea9579182015b82811115614ea8578251825591602001919060010190614e8d565b5b509050614eb69190614f8b565b5090565b604080519081016040528060008152602001600081525090565b606060405190810160405280600390602082028038833980820191505090505090565b608060405190810160405280600490602082028038833980820191505090505090565b608060405190810160405280614f2e614fb0565b8152602001614f3b614fb0565b81525090565b608060405190810160405280614f55614fb0565b8152602001614f62614fb0565b81525090565b602060405190810160405280600190602082028038833980820191505090505090565b614fad91905b80821115614fa9576000816000905550600101614f91565b5090565b90565b604080519081016040528060029060208202803883398082019150509050509056fe54686520736f6c7574696f6e20686173206265656e2075736564206265666f72655472616e73616374696f6e207375636365737366756c6c792076657269666965642e27746f2720706172616d206973206e6f7420612076616c696420616464726573732e6164647265737320697320616c7265616479206f776e6572206f66207468697320737065636966696320746f6b656e4163636573732064656e6965642c206e6f7420616c6c6f77656420746f2063616c6c207468697320617070726f76654f6e6c7920746865206f776e65722063616e206d616b6520746869732063616c6c6e6577206f776e657220616464726573732073686f756c64206265206578697374696e67a165627a7a723058204c93a86fa13e0e154365c8d864564f9aa6400b9955b65e4a122034230858ce52002968747470733a2f2f73332d75732d776573742d322e616d617a6f6e6177732e636f6d2f756461636974792d626c6f636b636861696e2f63617073746f6e652f",
  "source": "pragma solidity >=0.4.21 <0.6.0;\n\nimport \"./ERC721Mintable.sol\";\nimport \"./verifier.sol\";\n\n// define a contract call to the zokrates generated solidity contract <Verifier> or <renamedVerifier>\n// define another contract named SolnSquareVerifier that inherits from your ERC721Mintable class\ncontract SolnSquareVerifier is Verifier, MyERC721Token {\n    // define a solutions struct that can hold an index & an address\n    struct Solution {\n        bytes32 index;\n        uint256 tokenId;\n        address addr;\n    }\n\n    // define an array of the above struct\n    mapping(uint256 => Solution) solutions;\n\n    // define a mapping to store unique solutions submitted\n    mapping(bytes32 => bool) submittedSolutions;\n\n    // Create an event to emit when a solution is added\n    event SolutionAdded(bytes32 key, address addr, uint256 tokenId);\n\n    // Create a function to add the solutions to the array and emit the event\n    function addSolution(\n        address addr,\n        uint256 tokenId,\n        uint256[2] memory a,\n        uint256[2] memory a_p,\n        uint256[2][2] memory b,\n        uint256[2] memory b_p,\n        uint256[2] memory c,\n        uint256[2] memory c_p,\n        uint256[2] memory h,\n        uint256[2] memory k,\n        uint256[2] memory input\n    ) public {\n        bytes32 key = keccak256(\n            abi.encodePacked(tokenId, addr, a, a_p, b, b_p, c, c_p, h, k, input)\n        );\n        require(!submittedSolutions[key], \"The solution has been used before\");\n        bool isValid = verifyTx(a, a_p, b, b_p, c, c_p, h, k, input);\n        require(isValid, \"The proof is not valid\");\n        Solution memory solution = Solution(key, tokenId, addr);\n        solutions[tokenId] = solution;\n        submittedSolutions[key] = true;\n        emit SolutionAdded(key, addr, tokenId);\n    }\n\n    // Create a function to mint new NFT only after the solution has been verified\n    //  - make sure the solution is unique (has not been used before)\n    //  - make sure you handle metadata as well as tokenSuplly\n    function mint(address addr, uint256 tokenId) public returns (bool) {\n        require(\n            solutions[tokenId].addr != address(0),\n            \"The solution has been used before\"\n        );\n        return super.mint(addr, tokenId);\n    }\n}\n",
  "sourcePath": "/Users/mo/code/class/udacity-blockchain/Homework/Blockchain-Capstone/eth-contracts/contracts/SolnSquareVerifier.sol",
  "compiler": {
    "name": "solc",
    "version": "0.5.2+commit.1df8f40c.Emscripten.clang"
  },
  "schemaVersion": "3.0.1",
  "updatedAt": "2022-09-15T03:06:48.473Z",
  "devdoc": {
    "methods": {
      "isApprovedForAll(address,address)": {
        "details": "Tells whether an operator is approved by a given owner",
        "params": {
          "operator": "operator address which you want to query the approval of",
          "owner": "owner address which you want to query the approval of"
        },
        "return": "bool whether the given operator is approved by the given owner"
      },
      "setApprovalForAll(address,bool)": {
        "details": "Sets or unsets the approval of a given operator An operator is allowed to transfer all tokens of the sender on their behalf",
        "params": {
          "approved": "representing the status of the approval to be set",
          "to": "operator address to set the approval"
        }
      },
      "supportsInterface(bytes4)": {
        "details": "implement supportsInterface(bytes4) using a lookup table"
      },
      "tokenByIndex(uint256)": {
        "details": "Gets the token ID at a given index of all the tokens in this contract Reverts if the index is greater or equal to the total number of tokens",
        "params": {
          "index": "uint256 representing the index to be accessed of the tokens list"
        },
        "return": "uint256 token ID at the given index of the tokens list"
      },
      "tokenOfOwnerByIndex(address,uint256)": {
        "details": "Gets the token ID at a given index of the tokens list of the requested owner",
        "params": {
          "index": "uint256 representing the index to be accessed of the requested tokens list",
          "owner": "address owning the tokens list to be accessed"
        },
        "return": "uint256 token ID at the given index of the tokens list owned by the requested address"
      },
      "totalSupply()": {
        "details": "Gets the total amount of tokens stored by the contract",
        "return": "uint256 representing the total amount of tokens"
      }
    }
  },
  "userdoc": {
    "methods": {}
  }
}