{
  "contractName": "SolnSquareVerifier",
  "abi": [
    {
      "constant": true,
      "inputs": [
        {
          "name": "interfaceId",
          "type": "bytes4"
        }
      ],
      "name": "supportsInterface",
      "outputs": [
        {
          "name": "",
          "type": "bool"
        }
      ],
      "payable": false,
      "stateMutability": "view",
      "type": "function"
    },
    {
      "constant": true,
      "inputs": [],
      "name": "name",
      "outputs": [
        {
          "name": "",
          "type": "string"
        }
      ],
      "payable": false,
      "stateMutability": "view",
      "type": "function"
    },
    {
      "constant": true,
      "inputs": [
        {
          "name": "tokenId",
          "type": "uint256"
        }
      ],
      "name": "getApproved",
      "outputs": [
        {
          "name": "",
          "type": "address"
        }
      ],
      "payable": false,
      "stateMutability": "view",
      "type": "function"
    },
    {
      "constant": false,
      "inputs": [
        {
          "name": "to",
          "type": "address"
        },
        {
          "name": "tokenId",
          "type": "uint256"
        }
      ],
      "name": "approve",
      "outputs": [],
      "payable": false,
      "stateMutability": "nonpayable",
      "type": "function"
    },
    {
      "constant": true,
      "inputs": [],
      "name": "totalSupply",
      "outputs": [
        {
          "name": "",
          "type": "uint256"
        }
      ],
      "payable": false,
      "stateMutability": "view",
      "type": "function"
    },
    {
      "constant": false,
      "inputs": [
        {
          "name": "from",
          "type": "address"
        },
        {
          "name": "to",
          "type": "address"
        },
        {
          "name": "tokenId",
          "type": "uint256"
        }
      ],
      "name": "transferFrom",
      "outputs": [],
      "payable": false,
      "stateMutability": "nonpayable",
      "type": "function"
    },
    {
      "constant": false,
      "inputs": [
        {
          "name": "_myid",
          "type": "bytes32"
        },
        {
          "name": "_result",
          "type": "string"
        }
      ],
      "name": "__callback",
      "outputs": [],
      "payable": false,
      "stateMutability": "nonpayable",
      "type": "function"
    },
    {
      "constant": true,
      "inputs": [
        {
          "name": "owner",
          "type": "address"
        },
        {
          "name": "index",
          "type": "uint256"
        }
      ],
      "name": "tokenOfOwnerByIndex",
      "outputs": [
        {
          "name": "",
          "type": "uint256"
        }
      ],
      "payable": false,
      "stateMutability": "view",
      "type": "function"
    },
    {
      "constant": false,
      "inputs": [
        {
          "name": "_myid",
          "type": "bytes32"
        },
        {
          "name": "_result",
          "type": "string"
        },
        {
          "name": "_proof",
          "type": "bytes"
        }
      ],
      "name": "__callback",
      "outputs": [],
      "payable": false,
      "stateMutability": "nonpayable",
      "type": "function"
    },
    {
      "constant": false,
      "inputs": [],
      "name": "unpause",
      "outputs": [],
      "payable": false,
      "stateMutability": "nonpayable",
      "type": "function"
    },
    {
      "constant": false,
      "inputs": [
        {
          "name": "from",
          "type": "address"
        },
        {
          "name": "to",
          "type": "address"
        },
        {
          "name": "tokenId",
          "type": "uint256"
        }
      ],
      "name": "safeTransferFrom",
      "outputs": [],
      "payable": false,
      "stateMutability": "nonpayable",
      "type": "function"
    },
    {
      "constant": true,
      "inputs": [
        {
          "name": "index",
          "type": "uint256"
        }
      ],
      "name": "tokenByIndex",
      "outputs": [
        {
          "name": "",
          "type": "uint256"
        }
      ],
      "payable": false,
      "stateMutability": "view",
      "type": "function"
    },
    {
      "constant": false,
      "inputs": [
        {
          "name": "a",
          "type": "uint256[2]"
        },
        {
          "name": "b",
          "type": "uint256[2][2]"
        },
        {
          "name": "c",
          "type": "uint256[2]"
        },
        {
          "name": "input",
          "type": "uint256[2]"
        }
      ],
      "name": "verifyTx",
      "outputs": [
        {
          "name": "r",
          "type": "bool"
        }
      ],
      "payable": false,
      "stateMutability": "nonpayable",
      "type": "function"
    },
    {
      "constant": true,
      "inputs": [
        {
          "name": "tokenId",
          "type": "uint256"
        }
      ],
      "name": "ownerOf",
      "outputs": [
        {
          "name": "",
          "type": "address"
        }
      ],
      "payable": false,
      "stateMutability": "view",
      "type": "function"
    },
    {
      "constant": true,
      "inputs": [
        {
          "name": "owner",
          "type": "address"
        }
      ],
      "name": "balanceOf",
      "outputs": [
        {
          "name": "",
          "type": "uint256"
        }
      ],
      "payable": false,
      "stateMutability": "view",
      "type": "function"
    },
    {
      "constant": false,
      "inputs": [],
      "name": "pause",
      "outputs": [],
      "payable": false,
      "stateMutability": "nonpayable",
      "type": "function"
    },
    {
      "constant": true,
      "inputs": [],
      "name": "owner",
      "outputs": [
        {
          "name": "",
          "type": "address"
        }
      ],
      "payable": false,
      "stateMutability": "view",
      "type": "function"
    },
    {
      "constant": true,
      "inputs": [],
      "name": "symbol",
      "outputs": [
        {
          "name": "",
          "type": "string"
        }
      ],
      "payable": false,
      "stateMutability": "view",
      "type": "function"
    },
    {
      "constant": false,
      "inputs": [
        {
          "name": "to",
          "type": "address"
        },
        {
          "name": "approved",
          "type": "bool"
        }
      ],
      "name": "setApprovalForAll",
      "outputs": [],
      "payable": false,
      "stateMutability": "nonpayable",
      "type": "function"
    },
    {
      "constant": false,
      "inputs": [
        {
          "name": "from",
          "type": "address"
        },
        {
          "name": "to",
          "type": "address"
        },
        {
          "name": "tokenId",
          "type": "uint256"
        },
        {
          "name": "_data",
          "type": "bytes"
        }
      ],
      "name": "safeTransferFrom",
      "outputs": [],
      "payable": false,
      "stateMutability": "nonpayable",
      "type": "function"
    },
    {
      "constant": true,
      "inputs": [
        {
          "name": "tokenId",
          "type": "uint256"
        }
      ],
      "name": "tokenURI",
      "outputs": [
        {
          "name": "",
          "type": "string"
        }
      ],
      "payable": false,
      "stateMutability": "view",
      "type": "function"
    },
    {
      "constant": true,
      "inputs": [],
      "name": "baseTokenURI",
      "outputs": [
        {
          "name": "",
          "type": "string"
        }
      ],
      "payable": false,
      "stateMutability": "view",
      "type": "function"
    },
    {
      "constant": true,
      "inputs": [
        {
          "name": "owner",
          "type": "address"
        },
        {
          "name": "operator",
          "type": "address"
        }
      ],
      "name": "isApprovedForAll",
      "outputs": [
        {
          "name": "",
          "type": "bool"
        }
      ],
      "payable": false,
      "stateMutability": "view",
      "type": "function"
    },
    {
      "constant": false,
      "inputs": [
        {
          "name": "newOwner",
          "type": "address"
        }
      ],
      "name": "transferOwnership",
      "outputs": [],
      "payable": false,
      "stateMutability": "nonpayable",
      "type": "function"
    },
    {
      "anonymous": false,
      "inputs": [
        {
          "indexed": false,
          "name": "key",
          "type": "bytes32"
        },
        {
          "indexed": false,
          "name": "addr",
          "type": "address"
        },
        {
          "indexed": false,
          "name": "tokenId",
          "type": "uint256"
        }
      ],
      "name": "SolutionAdded",
      "type": "event"
    },
    {
      "anonymous": false,
      "inputs": [
        {
          "indexed": true,
          "name": "from",
          "type": "address"
        },
        {
          "indexed": true,
          "name": "to",
          "type": "address"
        },
        {
          "indexed": true,
          "name": "tokenId",
          "type": "uint256"
        }
      ],
      "name": "Transfer",
      "type": "event"
    },
    {
      "anonymous": false,
      "inputs": [
        {
          "indexed": true,
          "name": "owner",
          "type": "address"
        },
        {
          "indexed": true,
          "name": "approved",
          "type": "address"
        },
        {
          "indexed": true,
          "name": "tokenId",
          "type": "uint256"
        }
      ],
      "name": "Approval",
      "type": "event"
    },
    {
      "anonymous": false,
      "inputs": [
        {
          "indexed": true,
          "name": "owner",
          "type": "address"
        },
        {
          "indexed": true,
          "name": "operator",
          "type": "address"
        },
        {
          "indexed": false,
          "name": "approved",
          "type": "bool"
        }
      ],
      "name": "ApprovalForAll",
      "type": "event"
    },
    {
      "anonymous": false,
      "inputs": [
        {
          "indexed": false,
          "name": "account",
          "type": "address"
        }
      ],
      "name": "Paused",
      "type": "event"
    },
    {
      "anonymous": false,
      "inputs": [
        {
          "indexed": false,
          "name": "account",
          "type": "address"
        }
      ],
      "name": "Unpaused",
      "type": "event"
    },
    {
      "anonymous": false,
      "inputs": [
        {
          "indexed": true,
          "name": "previousOwner",
          "type": "address"
        },
        {
          "indexed": true,
          "name": "newOwner",
          "type": "address"
        }
      ],
      "name": "OwnershipTransferred",
      "type": "event"
    },
    {
      "anonymous": false,
      "inputs": [
        {
          "indexed": false,
          "name": "s",
          "type": "string"
        }
      ],
      "name": "Verified",
      "type": "event"
    },
    {
      "constant": false,
      "inputs": [
        {
          "name": "addr",
          "type": "address"
        },
        {
          "name": "tokenId",
          "type": "uint256"
        },
        {
          "name": "a",
          "type": "uint256[2]"
        },
        {
          "name": "b",
          "type": "uint256[2][2]"
        },
        {
          "name": "c",
          "type": "uint256[2]"
        },
        {
          "name": "input",
          "type": "uint256[2]"
        }
      ],
      "name": "addSolution",
      "outputs": [],
      "payable": false,
      "stateMutability": "nonpayable",
      "type": "function"
    },
    {
      "constant": false,
      "inputs": [
        {
          "name": "addr",
          "type": "address"
        },
        {
          "name": "tokenId",
          "type": "uint256"
        }
      ],
      "name": "mint",
      "outputs": [
        {
          "name": "",
          "type": "bool"
        }
      ],
      "payable": false,
      "stateMutability": "nonpayable",
      "type": "function"
    }
  ],
  "bytecode": "0x60806040526040805190810160405280600e81526020017f424b4b204c616e6420546f6b656e0000000000000000000000000000000000008152506040805190810160405280600581526020017f424b4b4c54000000000000000000000000000000000000000000000000000000815250606060405190810160405280603f815260200162004b41603f9139336000806101000a81548173ffffffffffffffffffffffffffffffffffffffff021916908373ffffffffffffffffffffffffffffffffffffffff1602179055506000809054906101000a900473ffffffffffffffffffffffffffffffffffffffff1673ffffffffffffffffffffffffffffffffffffffff16600073ffffffffffffffffffffffffffffffffffffffff167f8be0079c531659141344cd1fd0a4f28419497f9722a3daafe3b4186f6b6457e060405160405180910390a360008060146101000a81548160ff0219169083151502179055506200019e6301ffc9a77c010000000000000000000000000000000000000000000000000000000002620002a9640100000000026401000000009004565b620001db6380ac58cd7c010000000000000000000000000000000000000000000000000000000002620002a9640100000000026401000000009004565b6200021863780e9d637c010000000000000000000000000000000000000000000000000000000002620002a9640100000000026401000000009004565b82600f90805190602001906200023092919062000367565b5081601090805190602001906200024992919062000367565b5080601190805190602001906200026292919062000367565b50620002a0635b5e139f7c010000000000000000000000000000000000000000000000000000000002620002a9640100000000026401000000009004565b50505062000416565b63ffffffff7c010000000000000000000000000000000000000000000000000000000002817bffffffffffffffffffffffffffffffffffffffffffffffffffffffff191614151515620002fb57600080fd5b6001806000837bffffffffffffffffffffffffffffffffffffffffffffffffffffffff19167bffffffffffffffffffffffffffffffffffffffffffffffffffffffff1916815260200190815260200160002060006101000a81548160ff02191690831515021790555050565b828054600181600116156101000203166002900490600052602060002090601f016020900481019282601f10620003aa57805160ff1916838001178555620003db565b82800160010185558215620003db579182015b82811115620003da578251825591602001919060010190620003bd565b5b509050620003ea9190620003ee565b5090565b6200041391905b808211156200040f576000816000905550600101620003f5565b5090565b90565b61471b80620004266000396000f3fe608060405234801561001057600080fd5b50600436106101ab576000357c0100000000000000000000000000000000000000000000000000000000900480634f6ccce7116100fb57806395d89b41116100b4578063c87b56dd1161008e578063c87b56dd14610d79578063d547cfb714610e20578063e985e9c514610ea3578063f2fde38b14610f1f576101ab565b806395d89b4114610ba1578063a22cb46514610c24578063b88d4fde14610c74576101ab565b80634f6ccce7146108cc578063621e9ec01461090e5780636352211e14610a8757806370a0823114610af55780638456cb5914610b4d5780638da5cb5b14610b57576101ab565b806327dc297e116101685780633eec14da116101425780633eec14da146106635780633f4ba83a146107ee57806340c10f19146107f857806342842e0e1461085e576101ab565b806327dc297e146103e05780632f745c59146104a557806338bbfa5014610507576101ab565b806301ffc9a7146101b057806306fdde0314610215578063081812fc14610298578063095ea7b31461030657806318160ddd1461035457806323b872dd14610372575b600080fd5b6101fb600480360360208110156101c657600080fd5b8101908080357bffffffffffffffffffffffffffffffffffffffffffffffffffffffff19169060200190929190505050610f63565b604051808215151515815260200191505060405180910390f35b61021d610fcb565b6040518080602001828103825283818151815260200191508051906020019080838360005b8381101561025d578082015181840152602081019050610242565b50505050905090810190601f16801561028a5780820380516001836020036101000a031916815260200191505b509250505060405180910390f35b6102c4600480360360208110156102ae57600080fd5b810190808035906020019092919050505061106d565b604051808273ffffffffffffffffffffffffffffffffffffffff1673ffffffffffffffffffffffffffffffffffffffff16815260200191505060405180910390f35b6103526004803603604081101561031c57600080fd5b81019080803573ffffffffffffffffffffffffffffffffffffffff169060200190929190803590602001909291905050506110aa565b005b61035c6112c3565b6040518082815260200191505060405180910390f35b6103de6004803603606081101561038857600080fd5b81019080803573ffffffffffffffffffffffffffffffffffffffff169060200190929190803573ffffffffffffffffffffffffffffffffffffffff169060200190929190803590602001909291905050506112d0565b005b6104a3600480360360408110156103f657600080fd5b81019080803590602001909291908035906020019064010000000081111561041d57600080fd5b82018360208201111561042f57600080fd5b8035906020019184600183028401116401000000008311171561045157600080fd5b91908080601f016020809104026020016040519081016040528093929190818152602001838380828437600081840152601f19601f8201169050808301925050505050505091929192905050506112f5565b005b6104f1600480360360408110156104bb57600080fd5b81019080803573ffffffffffffffffffffffffffffffffffffffff16906020019092919080359060200190929190505050611338565b6040518082815260200191505060405180910390f35b6106616004803603606081101561051d57600080fd5b81019080803590602001909291908035906020019064010000000081111561054457600080fd5b82018360208201111561055657600080fd5b8035906020019184600183028401116401000000008311171561057857600080fd5b91908080601f016020809104026020016040519081016040528093929190818152602001838380828437600081840152601f19601f820116905080830192505050505050509192919290803590602001906401000000008111156105db57600080fd5b8201836020820111156105ed57600080fd5b8035906020019184600183028401116401000000008311171561060f57600080fd5b91908080601f016020809104026020016040519081016040528093929190818152602001838380828437600081840152601f19601f8201169050808301925050505050505091929192905050506113af565b005b6107ec600480360361018081101561067a57600080fd5b81019080803573ffffffffffffffffffffffffffffffffffffffff1690602001909291908035906020019092919080604001906002806020026040519081016040528092919082600260200280828437600081840152601f19601f82011690508083019250505050505091929192908060800190600280602002604051908101604052809291906000905b82821015610759578382604002016002806020026040519081016040528092919082600260200280828437600081840152601f19601f82011690508083019250505050505081526020019060010190610705565b50505050919291929080604001906002806020026040519081016040528092919082600260200280828437600081840152601f19601f820116905080830192505050505050919291929080604001906002806020026040519081016040528092919082600260200280828437600081840152601f19601f82011690508083019250505050505091929192905050506113b4565b005b6107f6611710565b005b6108446004803603604081101561080e57600080fd5b81019080803573ffffffffffffffffffffffffffffffffffffffff169060200190929190803590602001909291905050506118ba565b604051808215151515815260200191505060405180910390f35b6108ca6004803603606081101561087457600080fd5b81019080803573ffffffffffffffffffffffffffffffffffffffff169060200190929190803573ffffffffffffffffffffffffffffffffffffffff1690602001909291908035906020019092919050505061198b565b005b6108f8600480360360208110156108e257600080fd5b81019080803590602001909291905050506119ac565b6040518082815260200191505060405180910390f35b610a6d600480360361014081101561092557600080fd5b8101908080604001906002806020026040519081016040528092919082600260200280828437600081840152601f19601f82011690508083019250505050505091929192908060800190600280602002604051908101604052809291906000905b828210156109da578382604002016002806020026040519081016040528092919082600260200280828437600081840152601f19601f82011690508083019250505050505081526020019060010190610986565b50505050919291929080604001906002806020026040519081016040528092919082600260200280828437600081840152601f19601f820116905080830192505050505050919291929080604001906002806020026040519081016040528092919082600260200280828437600081840152601f19601f82011690508083019250505050505091929192905050506119e4565b604051808215151515815260200191505060405180910390f35b610ab360048036036020811015610a9d57600080fd5b8101908080359060200190929190505050611c49565b604051808273ffffffffffffffffffffffffffffffffffffffff1673ffffffffffffffffffffffffffffffffffffffff16815260200191505060405180910390f35b610b3760048036036020811015610b0b57600080fd5b81019080803573ffffffffffffffffffffffffffffffffffffffff169060200190929190505050611c86565b6040518082815260200191505060405180910390f35b610b55611cd6565b005b610b5f611e82565b604051808273ffffffffffffffffffffffffffffffffffffffff1673ffffffffffffffffffffffffffffffffffffffff16815260200191505060405180910390f35b610ba9611eab565b6040518080602001828103825283818151815260200191508051906020019080838360005b83811015610be9578082015181840152602081019050610bce565b50505050905090810190601f168015610c165780820380516001836020036101000a031916815260200191505b509250505060405180910390f35b610c7260048036036040811015610c3a57600080fd5b81019080803573ffffffffffffffffffffffffffffffffffffffff169060200190929190803515159060200190929190505050611f4d565b005b610d7760048036036080811015610c8a57600080fd5b81019080803573ffffffffffffffffffffffffffffffffffffffff169060200190929190803573ffffffffffffffffffffffffffffffffffffffff1690602001909291908035906020019092919080359060200190640100000000811115610cf157600080fd5b820183602082011115610d0357600080fd5b80359060200191846001830284011164010000000083111715610d2557600080fd5b91908080601f016020809104026020016040519081016040528093929190818152602001838380828437600081840152601f19601f820116905080830192505050505050509192919290505050612089565b005b610da560048036036020811015610d8f57600080fd5b81019080803590602001909291905050506120b1565b6040518080602001828103825283818151815260200191508051906020019080838360005b83811015610de5578082015181840152602081019050610dca565b50505050905090810190601f168015610e125780820380516001836020036101000a031916815260200191505b509250505060405180910390f35b610e2861217a565b6040518080602001828103825283818151815260200191508051906020019080838360005b83811015610e68578082015181840152602081019050610e4d565b50505050905090810190601f168015610e955780820380516001836020036101000a031916815260200191505b509250505060405180910390f35b610f0560048036036040811015610eb957600080fd5b81019080803573ffffffffffffffffffffffffffffffffffffffff169060200190929190803573ffffffffffffffffffffffffffffffffffffffff16906020019092919050505061221c565b604051808215151515815260200191505060405180910390f35b610f6160048036036020811015610f3557600080fd5b81019080803573ffffffffffffffffffffffffffffffffffffffff1690602001909291905050506122b0565b005b600060016000837bffffffffffffffffffffffffffffffffffffffffffffffffffffffff19167bffffffffffffffffffffffffffffffffffffffffffffffffffffffff1916815260200190815260200160002060009054906101000a900460ff169050919050565b6060600f8054600181600116156101000203166002900480601f0160208091040260200160405190810160405280929190818152602001828054600181600116156101000203166002900480156110635780601f1061103857610100808354040283529160200191611063565b820191906000526020600020905b81548152906001019060200180831161104657829003601f168201915b5050505050905090565b60006003600083815260200190815260200160002060009054906101000a900473ffffffffffffffffffffffffffffffffffffffff169050919050565b6110b381611c49565b73ffffffffffffffffffffffffffffffffffffffff168273ffffffffffffffffffffffffffffffffffffffff1614151515611139576040517f08c379a000000000000000000000000000000000000000000000000000000000815260040180806020018281038252602f81526020018061464d602f913960400191505060405180910390fd5b6000809054906101000a900473ffffffffffffffffffffffffffffffffffffffff1673ffffffffffffffffffffffffffffffffffffffff163373ffffffffffffffffffffffffffffffffffffffff1614806111bb57506111ba6000809054906101000a900473ffffffffffffffffffffffffffffffffffffffff163361221c565b5b1515611212576040517f08c379a000000000000000000000000000000000000000000000000000000000815260040180806020018281038252602f81526020018061467c602f913960400191505060405180910390fd5b816003600083815260200190815260200160002060006101000a81548173ffffffffffffffffffffffffffffffffffffffff021916908373ffffffffffffffffffffffffffffffffffffffff160217905550803373ffffffffffffffffffffffffffffffffffffffff168373ffffffffffffffffffffffffffffffffffffffff167f8c5be1e5ebec7d5bd14f71427d1e84f3dd0314c0f7b2291e5b200ac8c7c3b92560405160405180910390a45050565b6000600880549050905090565b6112da3382612363565b15156112e557600080fd5b6112f08383836123f8565b505050565b611334828260006040519080825280601f01601f19166020018201604052801561132e5781602001600182028038833980820191505090505b506113af565b5050565b600061134383611c86565b8210151561135057600080fd5b600660008473ffffffffffffffffffffffffffffffffffffffff1673ffffffffffffffffffffffffffffffffffffffff1681526020019081526020016000208281548110151561139c57fe5b9060005260206000200154905092915050565b505050565b6000848484846040516020018085600260200280838360005b838110156113e85780820151818401526020810190506113cd565b505050509050018460026000925b8184101561143c5782846020020151600260200280838360005b8381101561142b578082015181840152602081019050611410565b5050505090500192600101926113f6565b9250505083600260200280838360005b8381101561146757808201518184015260208101905061144c565b5050505090500182600260200280838360005b8381101561149557808201518184015260208101905061147a565b505050509050019450505050506040516020818303038152906040528051906020012090506014600082815260200190815260200160002060009054906101000a900460ff16151515611533576040517f08c379a00000000000000000000000000000000000000000000000000000000081526004018080602001828103825260218152602001806145e86021913960400191505060405180910390fd5b6000611541868686866119e4565b90508015156115b8576040517f08c379a00000000000000000000000000000000000000000000000000000000081526004018080602001828103825260168152602001807f5468652070726f6f66206973206e6f742076616c69640000000000000000000081525060200191505060405180910390fd5b6115c0614377565b6060604051908101604052808481526020018981526020018a73ffffffffffffffffffffffffffffffffffffffff16815250905080601360008a8152602001908152602001600020600082015181600001556020820151816001015560408201518160020160006101000a81548173ffffffffffffffffffffffffffffffffffffffff021916908373ffffffffffffffffffffffffffffffffffffffff16021790555090505060016014600085815260200190815260200160002060006101000a81548160ff0219169083151502179055507fd54d9ef5d3801dc9b4c79ac9cb0d5ed3b9c83d168bd86bb6e937ca7df70392da838a8a604051808481526020018373ffffffffffffffffffffffffffffffffffffffff1673ffffffffffffffffffffffffffffffffffffffff168152602001828152602001935050505060405180910390a1505050505050505050565b3373ffffffffffffffffffffffffffffffffffffffff166000809054906101000a900473ffffffffffffffffffffffffffffffffffffffff1673ffffffffffffffffffffffffffffffffffffffff161415156117b7576040517f08c379a00000000000000000000000000000000000000000000000000000000081526004018080602001828103825260218152602001806146ab6021913960400191505060405180910390fd5b600060149054906101000a900460ff16151561183b576040517f08c379a00000000000000000000000000000000000000000000000000000000081526004018080602001828103825260168152602001807f436f6e7472616374206973206e6f74207061757365640000000000000000000081525060200191505060405180910390fd5b60008060146101000a81548160ff0219169083151502179055507f5db9ee0a495bf2e6ff9c91a7834c1ba4fdd244a5e8aa4e537bd38aeae4b073aa33604051808273ffffffffffffffffffffffffffffffffffffffff1673ffffffffffffffffffffffffffffffffffffffff16815260200191505060405180910390a1565b60008073ffffffffffffffffffffffffffffffffffffffff166013600084815260200190815260200160002060020160009054906101000a900473ffffffffffffffffffffffffffffffffffffffff1673ffffffffffffffffffffffffffffffffffffffff1614151515611979576040517f08c379a00000000000000000000000000000000000000000000000000000000081526004018080602001828103825260218152602001806145e86021913960400191505060405180910390fd5b611983838361241c565b905092915050565b6119a78383836020604051908101604052806000815250612089565b505050565b60006119b66112c3565b821015156119c357600080fd5b6008828154811015156119d257fe5b90600052602060002001549050919050565b60006119ee6143b2565b6040805190810160405280876000600281101515611a0857fe5b60200201518152602001876001600281101515611a2157fe5b6020020151815250816000018190525060408051908101604052806040805190810160405280886000600281101515611a5657fe5b60200201516000600281101515611a6957fe5b60200201518152602001886000600281101515611a8257fe5b60200201516001600281101515611a9557fe5b602002015181525081526020016040805190810160405280886001600281101515611abc57fe5b60200201516000600281101515611acf57fe5b60200201518152602001886001600281101515611ae857fe5b60200201516001600281101515611afb57fe5b602002015181525081525081602001819052506040805190810160405280856000600281101515611b2857fe5b60200201518152602001856001600281101515611b4157fe5b6020020151815250816040018190525060606002604051908082528060200260200182016040528015611b835781602001602082028038833980820191505090505b50905060008090505b6002811015611bd1578481600281101515611ba357fe5b60200201518282815181101515611bb657fe5b90602001906020020181815250508080600101915050611b8c565b506000611bde82846124e2565b1415611c3a577f3f3cfdb26fb5f9f1786ab4f1a1f9cd4c0b5e726cbdfc26e495261731aad44e396040518080602001828103825260228152602001806146096022913960400191505060405180910390a1600192505050611c41565b6000925050505b949350505050565b60006002600083815260200190815260200160002060009054906101000a900473ffffffffffffffffffffffffffffffffffffffff169050919050565b6000611ccf600460008473ffffffffffffffffffffffffffffffffffffffff1673ffffffffffffffffffffffffffffffffffffffff16815260200190815260200160002061266a565b9050919050565b3373ffffffffffffffffffffffffffffffffffffffff166000809054906101000a900473ffffffffffffffffffffffffffffffffffffffff1673ffffffffffffffffffffffffffffffffffffffff16141515611d7d576040517f08c379a00000000000000000000000000000000000000000000000000000000081526004018080602001828103825260218152602001806146ab6021913960400191505060405180910390fd5b600060149054906101000a900460ff16151515611e02576040517f08c379a00000000000000000000000000000000000000000000000000000000081526004018080602001828103825260128152602001807f436f6e747261637420697320706175736564000000000000000000000000000081525060200191505060405180910390fd5b6001600060146101000a81548160ff0219169083151502179055507f62e78cea01bee320cd4e420270b5ea74000d11b0c9f74754ebdbfc544b05a25833604051808273ffffffffffffffffffffffffffffffffffffffff1673ffffffffffffffffffffffffffffffffffffffff16815260200191505060405180910390a1565b60008060009054906101000a900473ffffffffffffffffffffffffffffffffffffffff16905090565b606060108054600181600116156101000203166002900480601f016020809104026020016040519081016040528092919081815260200182805460018160011615610100020316600290048015611f435780601f10611f1857610100808354040283529160200191611f43565b820191906000526020600020905b815481529060010190602001808311611f2657829003601f168201915b5050505050905090565b3373ffffffffffffffffffffffffffffffffffffffff168273ffffffffffffffffffffffffffffffffffffffff1614151515611f8857600080fd5b80600560003373ffffffffffffffffffffffffffffffffffffffff1673ffffffffffffffffffffffffffffffffffffffff16815260200190815260200160002060008473ffffffffffffffffffffffffffffffffffffffff1673ffffffffffffffffffffffffffffffffffffffff16815260200190815260200160002060006101000a81548160ff0219169083151502179055508173ffffffffffffffffffffffffffffffffffffffff163373ffffffffffffffffffffffffffffffffffffffff167f17307eab39ab6107e8899845ad3d59bd9653f200f220920489ca2b5937696c3183604051808215151515815260200191505060405180910390a35050565b6120948484846112d0565b6120a084848484612678565b15156120ab57600080fd5b50505050565b60606120bc8261289b565b15156120c757600080fd5b601260008381526020019081526020016000208054600181600116156101000203166002900480601f01602080910402602001604051908101604052809291908181526020018280546001816001161561010002031660029004801561216e5780601f106121435761010080835404028352916020019161216e565b820191906000526020600020905b81548152906001019060200180831161215157829003601f168201915b50505050509050919050565b606060118054600181600116156101000203166002900480601f0160208091040260200160405190810160405280929190818152602001828054600181600116156101000203166002900480156122125780601f106121e757610100808354040283529160200191612212565b820191906000526020600020905b8154815290600101906020018083116121f557829003601f168201915b5050505050905090565b6000600560008473ffffffffffffffffffffffffffffffffffffffff1673ffffffffffffffffffffffffffffffffffffffff16815260200190815260200160002060008373ffffffffffffffffffffffffffffffffffffffff1673ffffffffffffffffffffffffffffffffffffffff16815260200190815260200160002060009054906101000a900460ff16905092915050565b3373ffffffffffffffffffffffffffffffffffffffff166000809054906101000a900473ffffffffffffffffffffffffffffffffffffffff1673ffffffffffffffffffffffffffffffffffffffff16141515612357576040517f08c379a00000000000000000000000000000000000000000000000000000000081526004018080602001828103825260218152602001806146ab6021913960400191505060405180910390fd5b6123608161290d565b50565b60008061236f83611c49565b90508073ffffffffffffffffffffffffffffffffffffffff168473ffffffffffffffffffffffffffffffffffffffff1614806123de57508373ffffffffffffffffffffffffffffffffffffffff166123c68461106d565b73ffffffffffffffffffffffffffffffffffffffff16145b806123ef57506123ee818561221c565b5b91505092915050565b612403838383612a59565b61240d8382612d47565b6124178282612eeb565b505050565b60003373ffffffffffffffffffffffffffffffffffffffff166000809054906101000a900473ffffffffffffffffffffffffffffffffffffffff1673ffffffffffffffffffffffffffffffffffffffff161415156124c5576040517f08c379a00000000000000000000000000000000000000000000000000000000081526004018080602001828103825260218152602001806146ab6021913960400191505060405180910390fd5b6124cf8383612fb2565b6124d882612fd3565b6001905092915050565b6000807f30644e72e131a029b85045b68181585d2833e84879b9709143e1f593f000000190506125106143e7565b612518613126565b9050806080015151600186510114151561253157600080fd5b612539614430565b6040805190810160405280600081526020016000815250905060008090505b86518110156125dd5783878281518110151561257057fe5b9060200190602002015110151561258657600080fd5b6125ce826125c98560800151600185018151811015156125a257fe5b906020019060200201518a858151811015156125ba57fe5b90602001906020020151613580565b61361c565b91508080600101915050612558565b5061260481836080015160008151811015156125f557fe5b9060200190602002015161361c565b905061264a8560000151866020015161261c846136d9565b856040015161262e8a604001516136d9565b876060015161264089600001516136d9565b8960200151613775565b151561265c5760019350505050612664565b600093505050505b92915050565b600081600001549050919050565b60006126998473ffffffffffffffffffffffffffffffffffffffff166138f9565b15156126a85760019050612893565b60008473ffffffffffffffffffffffffffffffffffffffff1663150b7a02338887876040518563ffffffff167c0100000000000000000000000000000000000000000000000000000000028152600401808573ffffffffffffffffffffffffffffffffffffffff1673ffffffffffffffffffffffffffffffffffffffff1681526020018473ffffffffffffffffffffffffffffffffffffffff1673ffffffffffffffffffffffffffffffffffffffff16815260200183815260200180602001828103825283818151815260200191508051906020019080838360005b8381101561279f578082015181840152602081019050612784565b50505050905090810190601f1680156127cc5780820380516001836020036101000a031916815260200191505b5095505050505050602060405180830381600087803b1580156127ee57600080fd5b505af1158015612802573d6000803e3d6000fd5b505050506040513d602081101561281857600080fd5b8101908080519060200190929190505050905063150b7a027c0100000000000000000000000000000000000000000000000000000000027bffffffffffffffffffffffffffffffffffffffffffffffffffffffff1916817bffffffffffffffffffffffffffffffffffffffffffffffffffffffff1916149150505b949350505050565b6000806002600084815260200190815260200160002060009054906101000a900473ffffffffffffffffffffffffffffffffffffffff169050600073ffffffffffffffffffffffffffffffffffffffff168173ffffffffffffffffffffffffffffffffffffffff161415915050919050565b600073ffffffffffffffffffffffffffffffffffffffff168173ffffffffffffffffffffffffffffffffffffffff1614151515612995576040517f08c379a00000000000000000000000000000000000000000000000000000000081526004018080602001828103825260248152602001806146cc6024913960400191505060405180910390fd5b60008060009054906101000a900473ffffffffffffffffffffffffffffffffffffffff169050816000806101000a81548173ffffffffffffffffffffffffffffffffffffffff021916908373ffffffffffffffffffffffffffffffffffffffff1602179055508173ffffffffffffffffffffffffffffffffffffffff168173ffffffffffffffffffffffffffffffffffffffff167f8be0079c531659141344cd1fd0a4f28419497f9722a3daafe3b4186f6b6457e060405160405180910390a35050565b8273ffffffffffffffffffffffffffffffffffffffff16612a7982611c49565b73ffffffffffffffffffffffffffffffffffffffff16141515612b04576040517f08c379a00000000000000000000000000000000000000000000000000000000081526004018080602001828103825260158152602001807f596f7520617265206e6f7420746865206f776e6572000000000000000000000081525060200191505060405180910390fd5b600073ffffffffffffffffffffffffffffffffffffffff168273ffffffffffffffffffffffffffffffffffffffff1614158015612b5d5750612b5b8273ffffffffffffffffffffffffffffffffffffffff166138f9565b155b1515612bb4576040517f08c379a000000000000000000000000000000000000000000000000000000000815260040180806020018281038252602281526020018061462b6022913960400191505060405180910390fd5b60006003600083815260200190815260200160002060006101000a81548173ffffffffffffffffffffffffffffffffffffffff021916908373ffffffffffffffffffffffffffffffffffffffff160217905550816002600083815260200190815260200160002060006101000a81548173ffffffffffffffffffffffffffffffffffffffff021916908373ffffffffffffffffffffffffffffffffffffffff160217905550612ca0600460008573ffffffffffffffffffffffffffffffffffffffff1673ffffffffffffffffffffffffffffffffffffffff16815260200190815260200160002061390c565b612ce7600460008473ffffffffffffffffffffffffffffffffffffffff1673ffffffffffffffffffffffffffffffffffffffff16815260200190815260200160002061392f565b808273ffffffffffffffffffffffffffffffffffffffff168473ffffffffffffffffffffffffffffffffffffffff167fddf252ad1be2c89b69c2b068fc378daa952ba7f163c4a11628f55a4df523b3ef60405160405180910390a4505050565b6000612d9f6001600660008673ffffffffffffffffffffffffffffffffffffffff1673ffffffffffffffffffffffffffffffffffffffff1681526020019081526020016000208054905061394590919063ffffffff16565b90506000600760008481526020019081526020016000205490508181141515612e92576000600660008673ffffffffffffffffffffffffffffffffffffffff1673ffffffffffffffffffffffffffffffffffffffff16815260200190815260200160002083815481101515612e1057fe5b9060005260206000200154905080600660008773ffffffffffffffffffffffffffffffffffffffff1673ffffffffffffffffffffffffffffffffffffffff16815260200190815260200160002083815481101515612e6a57fe5b9060005260206000200181905550816007600083815260200190815260200160002081905550505b600660008573ffffffffffffffffffffffffffffffffffffffff1673ffffffffffffffffffffffffffffffffffffffff168152602001908152602001600020805480919060019003612ee4919061444a565b5050505050565b600660008373ffffffffffffffffffffffffffffffffffffffff1673ffffffffffffffffffffffffffffffffffffffff168152602001908152602001600020805490506007600083815260200190815260200160002081905550600660008373ffffffffffffffffffffffffffffffffffffffff1673ffffffffffffffffffffffffffffffffffffffff1681526020019081526020016000208190806001815401808255809150509060018203906000526020600020016000909192909190915055505050565b612fbc8282613967565b612fc68282612eeb565b612fcf81613add565b5050565b612fdc8161289b565b1515613050576040517f08c379a00000000000000000000000000000000000000000000000000000000081526004018080602001828103825260148152602001807f546f6b656e20646f6573206e6f7420657869737400000000000000000000000081525060200191505060405180910390fd5b6130fc60118054600181600116156101000203166002900480601f0160208091040260200160405190810160405280929190818152602001828054600181600116156101000203166002900480156130e95780601f106130be576101008083540402835291602001916130e9565b820191906000526020600020905b8154815290600101906020018083116130cc57829003601f168201915b50505050506130f783613b29565b613c82565b601260008381526020019081526020016000209080519060200190613122929190614476565b5050565b61312e6143e7565b60408051908101604052807f28150d30c8e7b9f0872971b5415b364ed85a2877b7dcb29ef9581be5f98e440281526020017f0d4f31bd62e855d72d9545542504438ad70d64e9c648851490ca20539a3a22dc8152508160000181905250604080519081016040528060408051908101604052807f222004f08df0f1bc45dbe44877ab642069f76c634cd3932ac6c917fd2dac199981526020017f1aa247f80448ce3891642b15387e267f081087356a57e2c072a3d5d1b0deb2e6815250815260200160408051908101604052807f0153e379c5b22d6fb3bcf569402bef2a60972bfc10a42b0643935996ed4a4f8d81526020017f2331c07946bc890d23b1a6980e1e6389cc016afe749de3ddc00fa6d2065bb2a58152508152508160200181905250604080519081016040528060408051908101604052807f2d2238e8c3cd96658c34ba252de8646af98ce707909dc562fd631aa98ffd611c81526020017f27d97c89583fe91653ba4a8121017651974ba292fb6c2c0196761a9a72056385815250815260200160408051908101604052807f13eb2ecfd75188538cc801054101ae89cbd5ef350ace1dbd701497eaf29d101c81526020017f26eec2f49b37a9537b7f4323338ac05c695f06a729ea1853c012f5ac1bcb97df8152508152508160400181905250604080519081016040528060408051908101604052807f0418e9af25d106d0e383dbbf784be6519b529a69d06abb6d849994396301a77681526020017f11cb809447335c9cc527af6b3e612fbfded421f3bc3b59bbaaf9513d229ea790815250815260200160408051908101604052807f2985819234d4d54b4e59cffb8a7212e94b272be16e7c09badff527336419108081526020017f1fda3912e8ce0be202dc9aa52b5b7db13ee90db3b6134bab201d735e3586bd2d8152508152508160600181905250600360405190808252806020026020018201604052801561341557816020015b6134026144f6565b8152602001906001900390816133fa5790505b50816080018190525060408051908101604052807f0d3b0a4e73b3148bc030079ce0fbe6b73d62afcf54c1f63a53e088b1a5b07b7b81526020017f0dbf861c5ca8bb6df920cbdf84d1f61c63e2b5b54912b343d478dfb9d170fc2d8152508160800151600081518110151561348657fe5b9060200190602002018190525060408051908101604052807f2e6174dd59dbaab9ed2b0df03e37b2f9307374c114ddda17235350f656b4bb9a81526020017f0beb0c2d8a4a1d039f84c3f0fd94a317c1042ac979c08675bf12de5c66d0b185815250816080015160018151811015156134fb57fe5b9060200190602002018190525060408051908101604052807f27cffe2b2ed59aeecd98d567feaf23508b10ce1117d0d2ac2aef5e6ad7c867f381526020017f2ae1998b1b1574b3ed7837bc3f68aca9148c1a99be7a925d3bdf784e8113f7a68152508160800151600281518110151561357057fe5b9060200190602002018190525090565b613588614430565b613590614510565b83600001518160006003811015156135a457fe5b60200201818152505083602001518160016003811015156135c157fe5b602002018181525050828160026003811015156135da57fe5b6020020181815250506000606083608084600060076107d05a03f19050806000811461360557613607565bfe5b5080151561361457600080fd5b505092915050565b613624614430565b61362c614533565b836000015181600060048110151561364057fe5b602002018181525050836020015181600160048110151561365d57fe5b602002018181525050826000015181600260048110151561367a57fe5b602002018181525050826020015181600360048110151561369757fe5b602002018181525050600060608360c084600060066107d05a03f1905080600081146136c2576136c4565bfe5b508015156136d157600080fd5b505092915050565b6136e1614430565b60007f30644e72e131a029b85045b68181585d97816a916871ca8d3c208c16d87cfd4790506000836000015114801561371e575060008360200151145b15613742576040805190810160405280600081526020016000815250915050613770565b60408051908101604052808460000151815260200182856020015181151561376657fe5b0683038152509150505b919050565b6000606060046040519080825280602002602001820160405280156137b457816020015b6137a16144f6565b8152602001906001900390816137995790505b509050606060046040519080825280602002602001820160405280156137f457816020015b6137e1614556565b8152602001906001900390816137d95790505b5090508a82600081518110151561380757fe5b906020019060200201819052508882600181518110151561382457fe5b906020019060200201819052508682600281518110151561384157fe5b906020019060200201819052508482600381518110151561385e57fe5b906020019060200201819052508981600081518110151561387b57fe5b906020019060200201819052508781600181518110151561389857fe5b90602001906020020181905250858160028151811015156138b557fe5b90602001906020020181905250838160038151811015156138d257fe5b906020019060200201819052506138e98282613cc9565b9250505098975050505050505050565b600080823b905060008111915050919050565b6139246001826000015461394590919063ffffffff16565b816000018190555050565b6001816000016000828254019250508190555050565b600082821115151561395657600080fd5b600082840390508091505092915050565b6139708161289b565b1515156139e5576040517f08c379a00000000000000000000000000000000000000000000000000000000081526004018080602001828103825260168152602001807f746f6b656e496420616c7265616479206578697374730000000000000000000081525060200191505060405180910390fd5b816002600083815260200190815260200160002060006101000a81548173ffffffffffffffffffffffffffffffffffffffff021916908373ffffffffffffffffffffffffffffffffffffffff160217905550613a7e600460008473ffffffffffffffffffffffffffffffffffffffff1673ffffffffffffffffffffffffffffffffffffffff16815260200190815260200160002061392f565b808273ffffffffffffffffffffffffffffffffffffffff163373ffffffffffffffffffffffffffffffffffffffff167fddf252ad1be2c89b69c2b068fc378daa952ba7f163c4a11628f55a4df523b3ef60405160405180910390a45050565b6008805490506009600083815260200190815260200160002081905550600881908060018154018082558091505090600182039060005260206000200160009091929091909150555050565b60606000821415613b71576040805190810160405280600181526020017f30000000000000000000000000000000000000000000000000000000000000008152509050613c7d565b600082905060005b600082141515613b9f578080600101915050600a82811515613b9757fe5b049150613b79565b6060816040519080825280601f01601f191660200182016040528015613bd45781602001600182028038833980820191505090505b50905060006001830390505b600086141515613c7557600a86811515613bf657fe5b066030017f010000000000000000000000000000000000000000000000000000000000000002828280600190039350815181101515613c3157fe5b9060200101907effffffffffffffffffffffffffffffffffffffffffffffffffffffffffffff1916908160001a905350600a86811515613c6d57fe5b049550613be0565b819450505050505b919050565b6060613cc18383602060405190810160405280600081525060206040519081016040528060008152506020604051908101604052806000815250613f5c565b905092915050565b600081518351141515613cdb57600080fd5b6000835190506000600682029050606081604051908082528060200260200182016040528015613d1a5781602001602082028038833980820191505090505b50905060008090505b83811015613ef8578681815181101515613d3957fe5b90602001906020020151600001518260006006840201815181101515613d5b57fe5b90602001906020020181815250508681815181101515613d7757fe5b90602001906020020151602001518260016006840201815181101515613d9957fe5b90602001906020020181815250508581815181101515613db557fe5b90602001906020020151600001516000600281101515613dd157fe5b60200201518260026006840201815181101515613dea57fe5b90602001906020020181815250508581815181101515613e0657fe5b90602001906020020151600001516001600281101515613e2257fe5b60200201518260036006840201815181101515613e3b57fe5b90602001906020020181815250508581815181101515613e5757fe5b90602001906020020151602001516000600281101515613e7357fe5b60200201518260046006840201815181101515613e8c57fe5b90602001906020020181815250508581815181101515613ea857fe5b90602001906020020151602001516001600281101515613ec457fe5b60200201518260056006840201815181101515613edd57fe5b90602001906020020181815250508080600101915050613d23565b50613f0161457d565b60006020826020860260208601600060086107d05a03f190508060008114613f2857613f2a565bfe5b50801515613f3757600080fd5b6000826000600181101515613f4857fe5b602002015114159550505050505092915050565b6060808690506060869050606086905060608690506060869050606081518351855187518951010101016040519080825280601f01601f191660200182016040528015613fb85781602001600182028038833980820191505090505b509050606081905060008090506000809050600090505b8851811015614082578881815181101515613fe657fe5b9060200101517f010000000000000000000000000000000000000000000000000000000000000090047f010000000000000000000000000000000000000000000000000000000000000002838380600101945081518110151561404557fe5b9060200101907effffffffffffffffffffffffffffffffffffffffffffffffffffffffffffff1916908160001a9053508080600101915050613fcf565b600090505b875181101561413a57878181518110151561409e57fe5b9060200101517f010000000000000000000000000000000000000000000000000000000000000090047f01000000000000000000000000000000000000000000000000000000000000000283838060010194508151811015156140fd57fe5b9060200101907effffffffffffffffffffffffffffffffffffffffffffffffffffffffffffff1916908160001a9053508080600101915050614087565b600090505b86518110156141f257868181518110151561415657fe5b9060200101517f010000000000000000000000000000000000000000000000000000000000000090047f01000000000000000000000000000000000000000000000000000000000000000283838060010194508151811015156141b557fe5b9060200101907effffffffffffffffffffffffffffffffffffffffffffffffffffffffffffff1916908160001a905350808060010191505061413f565b600090505b85518110156142aa57858181518110151561420e57fe5b9060200101517f010000000000000000000000000000000000000000000000000000000000000090047f010000000000000000000000000000000000000000000000000000000000000002838380600101945081518110151561426d57fe5b9060200101907effffffffffffffffffffffffffffffffffffffffffffffffffffffffffffff1916908160001a90535080806001019150506141f7565b600090505b84518110156143625784818151811015156142c657fe5b9060200101517f010000000000000000000000000000000000000000000000000000000000000090047f010000000000000000000000000000000000000000000000000000000000000002838380600101945081518110151561432557fe5b9060200101907effffffffffffffffffffffffffffffffffffffffffffffffffffffffffffff1916908160001a90535080806001019150506142af565b82995050505050505050505095945050505050565b6060604051908101604052806000801916815260200160008152602001600073ffffffffffffffffffffffffffffffffffffffff1681525090565b610100604051908101604052806143c76144f6565b81526020016143d4614556565b81526020016143e16144f6565b81525090565b6101e0604051908101604052806143fc6144f6565b8152602001614409614556565b8152602001614416614556565b8152602001614423614556565b8152602001606081525090565b604080519081016040528060008152602001600081525090565b8154818355818111156144715781836000526020600020918201910161447091906145a0565b5b505050565b828054600181600116156101000203166002900490600052602060002090601f016020900481019282601f106144b757805160ff19168380011785556144e5565b828001600101855582156144e5579182015b828111156144e45782518255916020019190600101906144c9565b5b5090506144f291906145a0565b5090565b604080519081016040528060008152602001600081525090565b606060405190810160405280600390602082028038833980820191505090505090565b608060405190810160405280600490602082028038833980820191505090505090565b60806040519081016040528061456a6145c5565b81526020016145776145c5565b81525090565b602060405190810160405280600190602082028038833980820191505090505090565b6145c291905b808211156145be5760008160009055506001016145a6565b5090565b90565b604080519081016040528060029060208202803883398082019150509050509056fe54686520736f6c7574696f6e20686173206265656e2075736564206265666f72655472616e73616374696f6e207375636365737366756c6c792076657269666965642e27746f2720706172616d206973206e6f7420612076616c696420616464726573732e6164647265737320697320616c7265616479206f776e6572206f66207468697320737065636966696320746f6b656e4163636573732064656e6965642c206e6f7420616c6c6f77656420746f2063616c6c207468697320617070726f76654f6e6c7920746865206f776e65722063616e206d616b6520746869732063616c6c6e6577206f776e657220616464726573732073686f756c64206265206578697374696e67a165627a7a723058207b98c55e5620cdd842d9dfc8df024c6d747de9a0a8f2c54873ec20206b1c4ad4002968747470733a2f2f73332d75732d776573742d322e616d617a6f6e6177732e636f6d2f756461636974792d626c6f636b636861696e2f63617073746f6e652f",
  "source": "pragma solidity >=0.4.21 <0.6.0;\n\nimport \"./ERC721Mintable.sol\";\nimport \"./verifier.sol\";\n\n// define a contract call to the zokrates generated solidity contract <Verifier> or <renamedVerifier>\n// define another contract named SolnSquareVerifier that inherits from your ERC721Mintable class\ncontract SolnSquareVerifier is Verifier, MyERC721Token {\n    // define a solutions struct that can hold an index & an address\n    struct Solution {\n        bytes32 index;\n        uint256 tokenId;\n        address addr;\n    }\n\n    // define an array of the above struct\n    mapping(uint256 => Solution) solutions;\n\n    // define a mapping to store unique solutions submitted\n    mapping(bytes32 => bool) submittedSolutions;\n\n    // Create an event to emit when a solution is added\n    event SolutionAdded(bytes32 key, address addr, uint256 tokenId);\n\n    // Create a function to add the solutions to the array and emit the event\n    function addSolution(\n        address addr,\n        uint256 tokenId,\n        uint[2] memory a, \n        uint[2][2] memory b, \n        uint[2] memory c, \n        uint[2] memory input\n    ) public {\n        bytes32 key = keccak256(\n            abi.encodePacked(a, b, c, input)\n        );\n        require(!submittedSolutions[key], \"The solution has been used before\");\n        bool isValid = verifyTx(a, b, c, input);\n        require(isValid, \"The proof is not valid\");\n        Solution memory solution = Solution(key, tokenId, addr);\n        solutions[tokenId] = solution;\n        submittedSolutions[key] = true;\n        emit SolutionAdded(key, addr, tokenId);\n    }\n\n    // Create a function to mint new NFT only after the solution has been verified\n    //  - make sure the solution is unique (has not been used before)\n    //  - make sure you handle metadata as well as tokenSuplly\n    function mint(address addr, uint256 tokenId) public returns (bool) {\n        require(\n            solutions[tokenId].addr != address(0),\n            \"The solution has been used before\"\n        );\n        return super.mint(addr, tokenId);\n    }\n}\n",
  "sourcePath": "/Users/mo/code/class/udacity-blockchain/Homework/Blockchain-Capstone/eth-contracts/contracts/SolnSquareVerifier.sol",
  "compiler": {
    "name": "solc",
    "version": "0.5.2+commit.1df8f40c.Emscripten.clang"
  },
  "schemaVersion": "3.4.1",
  "updatedAt": "2022-09-15T15:02:46.911Z",
  "networkType": "ethereum",
  "devdoc": {
    "methods": {
      "isApprovedForAll(address,address)": {
        "details": "Tells whether an operator is approved by a given owner",
        "params": {
          "operator": "operator address which you want to query the approval of",
          "owner": "owner address which you want to query the approval of"
        },
        "return": "bool whether the given operator is approved by the given owner"
      },
      "setApprovalForAll(address,bool)": {
        "details": "Sets or unsets the approval of a given operator An operator is allowed to transfer all tokens of the sender on their behalf",
        "params": {
          "approved": "representing the status of the approval to be set",
          "to": "operator address to set the approval"
        }
      },
      "supportsInterface(bytes4)": {
        "details": "implement supportsInterface(bytes4) using a lookup table"
      },
      "tokenByIndex(uint256)": {
        "details": "Gets the token ID at a given index of all the tokens in this contract Reverts if the index is greater or equal to the total number of tokens",
        "params": {
          "index": "uint256 representing the index to be accessed of the tokens list"
        },
        "return": "uint256 token ID at the given index of the tokens list"
      },
      "tokenOfOwnerByIndex(address,uint256)": {
        "details": "Gets the token ID at a given index of the tokens list of the requested owner",
        "params": {
          "index": "uint256 representing the index to be accessed of the requested tokens list",
          "owner": "address owning the tokens list to be accessed"
        },
        "return": "uint256 token ID at the given index of the tokens list owned by the requested address"
      },
      "totalSupply()": {
        "details": "Gets the total amount of tokens stored by the contract",
        "return": "uint256 representing the total amount of tokens"
      }
    }
  },
  "userdoc": {
    "methods": {}
  }
}